{
  "_format": "hh-sol-artifact-1",
  "contractName": "DepositContract",
  "sourceName": "contracts/DepositContract.sol",
  "abi": [
    {
      "inputs": [
        {
          "internalType": "address",
          "name": "_tokenA",
          "type": "address"
        },
        {
          "internalType": "address",
          "name": "_nftB",
          "type": "address"
        }
      ],
      "stateMutability": "nonpayable",
      "type": "constructor"
    },
    {
      "anonymous": false,
      "inputs": [
        {
          "indexed": true,
          "internalType": "address",
          "name": "owner",
          "type": "address"
        },
        {
          "indexed": true,
          "internalType": "address",
          "name": "approved",
          "type": "address"
        },
        {
          "indexed": true,
          "internalType": "uint256",
          "name": "tokenId",
          "type": "uint256"
        }
      ],
      "name": "Approval",
      "type": "event"
    },
    {
      "anonymous": false,
      "inputs": [
        {
          "indexed": true,
          "internalType": "address",
          "name": "owner",
          "type": "address"
        },
        {
          "indexed": true,
          "internalType": "address",
          "name": "operator",
          "type": "address"
        },
        {
          "indexed": false,
          "internalType": "bool",
          "name": "approved",
          "type": "bool"
        }
      ],
      "name": "ApprovalForAll",
      "type": "event"
    },
    {
      "anonymous": false,
      "inputs": [
        {
          "indexed": true,
          "internalType": "address",
          "name": "user",
          "type": "address"
        },
        {
          "indexed": false,
          "internalType": "uint256",
          "name": "amount",
          "type": "uint256"
        }
      ],
      "name": "Deposited",
      "type": "event"
    },
    {
      "anonymous": false,
      "inputs": [
        {
          "indexed": true,
          "internalType": "address",
          "name": "user",
          "type": "address"
        },
        {
          "indexed": false,
          "internalType": "uint256",
          "name": "tokenId",
          "type": "uint256"
        }
      ],
      "name": "NFTDeposited",
      "type": "event"
    },
    {
      "anonymous": false,
      "inputs": [
        {
          "indexed": true,
          "internalType": "address",
          "name": "user",
          "type": "address"
        },
        {
          "indexed": false,
          "internalType": "uint256",
          "name": "tokenId",
          "type": "uint256"
        }
      ],
      "name": "NFTMinted",
      "type": "event"
    },
    {
      "anonymous": false,
      "inputs": [
        {
          "indexed": true,
          "internalType": "address",
          "name": "user",
          "type": "address"
        },
        {
          "indexed": false,
          "internalType": "uint256",
          "name": "tokenId",
          "type": "uint256"
        }
      ],
      "name": "NFTWithdrawn",
      "type": "event"
    },
    {
      "anonymous": false,
      "inputs": [
        {
          "indexed": true,
          "internalType": "address",
          "name": "user",
          "type": "address"
        },
        {
          "indexed": false,
          "internalType": "uint256",
          "name": "amount",
          "type": "uint256"
        }
      ],
      "name": "RewardClaimed",
      "type": "event"
    },
    {
      "anonymous": false,
      "inputs": [
        {
          "indexed": true,
          "internalType": "address",
          "name": "from",
          "type": "address"
        },
        {
          "indexed": true,
          "internalType": "address",
          "name": "to",
          "type": "address"
        },
        {
          "indexed": true,
          "internalType": "uint256",
          "name": "tokenId",
          "type": "uint256"
        }
      ],
      "name": "Transfer",
      "type": "event"
    },
    {
      "anonymous": false,
      "inputs": [
        {
          "indexed": true,
          "internalType": "address",
          "name": "user",
          "type": "address"
        },
        {
          "indexed": false,
          "internalType": "uint256",
          "name": "amount",
          "type": "uint256"
        }
      ],
      "name": "WithdrawnToken",
      "type": "event"
    },
    {
      "inputs": [],
      "name": "APR",
      "outputs": [
        {
          "internalType": "uint8",
          "name": "",
          "type": "uint8"
        }
      ],
      "stateMutability": "view",
      "type": "function"
    },
    {
      "inputs": [],
      "name": "LOCK_TIME",
      "outputs": [
        {
          "internalType": "uint256",
          "name": "",
          "type": "uint256"
        }
      ],
      "stateMutability": "view",
      "type": "function"
    },
    {
      "inputs": [],
      "name": "NFT_THRESHOLD",
      "outputs": [
        {
          "internalType": "uint256",
          "name": "",
          "type": "uint256"
        }
      ],
      "stateMutability": "view",
      "type": "function"
    },
    {
      "inputs": [
        {
          "internalType": "address",
          "name": "to",
          "type": "address"
        },
        {
          "internalType": "uint256",
          "name": "tokenId",
          "type": "uint256"
        }
      ],
      "name": "approve",
      "outputs": [],
      "stateMutability": "nonpayable",
      "type": "function"
    },
    {
      "inputs": [
        {
          "internalType": "address",
          "name": "owner",
          "type": "address"
        }
      ],
      "name": "balanceOf",
      "outputs": [
        {
          "internalType": "uint256",
          "name": "",
          "type": "uint256"
        }
      ],
      "stateMutability": "view",
      "type": "function"
    },
    {
      "inputs": [
        {
          "internalType": "address",
          "name": "_user",
          "type": "address"
        }
      ],
      "name": "calculateReward",
      "outputs": [
        {
          "internalType": "uint256",
          "name": "",
          "type": "uint256"
        }
      ],
      "stateMutability": "view",
      "type": "function"
    },
    {
      "inputs": [
        {
          "internalType": "uint8",
          "name": "_APR",
          "type": "uint8"
        }
      ],
      "name": "changeAPR",
      "outputs": [],
      "stateMutability": "nonpayable",
      "type": "function"
    },
    {
      "inputs": [],
      "name": "claimReward",
      "outputs": [],
      "stateMutability": "nonpayable",
      "type": "function"
    },
    {
      "inputs": [
        {
          "internalType": "uint256",
          "name": "_amount",
          "type": "uint256"
        }
      ],
      "name": "deposit",
      "outputs": [],
      "stateMutability": "nonpayable",
      "type": "function"
    },
    {
      "inputs": [
        {
          "internalType": "uint256",
          "name": "_tokenId",
          "type": "uint256"
        }
      ],
      "name": "depositNFT",
      "outputs": [],
      "stateMutability": "nonpayable",
      "type": "function"
    },
    {
      "inputs": [
        {
          "internalType": "address",
          "name": "",
          "type": "address"
        }
      ],
      "name": "deposits",
      "outputs": [
        {
          "internalType": "uint256",
          "name": "amount",
          "type": "uint256"
        },
        {
          "internalType": "uint256",
          "name": "depositTime",
          "type": "uint256"
        },
        {
          "internalType": "uint256",
          "name": "reward",
          "type": "uint256"
        },
        {
          "internalType": "uint256",
          "name": "receiveReward",
          "type": "uint256"
        },
        {
          "internalType": "uint8",
          "name": "APR",
          "type": "uint8"
        },
        {
          "internalType": "bool",
          "name": "claimedNFT",
          "type": "bool"
        }
      ],
      "stateMutability": "view",
      "type": "function"
    },
    {
      "inputs": [],
      "name": "getAPR",
      "outputs": [
        {
          "internalType": "uint8",
          "name": "",
          "type": "uint8"
        }
      ],
      "stateMutability": "view",
      "type": "function"
    },
    {
      "inputs": [
        {
          "internalType": "uint256",
          "name": "tokenId",
          "type": "uint256"
        }
      ],
      "name": "getApproved",
      "outputs": [
        {
          "internalType": "address",
          "name": "",
          "type": "address"
        }
      ],
      "stateMutability": "view",
      "type": "function"
    },
    {
      "inputs": [
        {
          "internalType": "address",
          "name": "_user",
          "type": "address"
        }
      ],
      "name": "getUserInfor",
      "outputs": [
        {
          "components": [
            {
              "internalType": "uint256",
              "name": "amount",
              "type": "uint256"
            },
            {
              "internalType": "uint256",
              "name": "depositTime",
              "type": "uint256"
            },
            {
              "internalType": "uint256",
              "name": "reward",
              "type": "uint256"
            },
            {
              "internalType": "uint256",
              "name": "receiveReward",
              "type": "uint256"
            },
            {
              "internalType": "uint8",
              "name": "APR",
              "type": "uint8"
            },
            {
              "internalType": "bool",
              "name": "claimedNFT",
              "type": "bool"
            },
            {
              "internalType": "uint256[]",
              "name": "userNft",
              "type": "uint256[]"
            }
          ],
          "internalType": "struct DepositContract.UserInfor",
          "name": "",
          "type": "tuple"
        }
      ],
      "stateMutability": "view",
      "type": "function"
    },
    {
      "inputs": [
        {
          "internalType": "address",
          "name": "owner",
          "type": "address"
        },
        {
          "internalType": "address",
          "name": "operator",
          "type": "address"
        }
      ],
      "name": "isApprovedForAll",
      "outputs": [
        {
          "internalType": "bool",
          "name": "",
          "type": "bool"
        }
      ],
      "stateMutability": "view",
      "type": "function"
    },
    {
      "inputs": [],
      "name": "name",
      "outputs": [
        {
          "internalType": "string",
          "name": "",
          "type": "string"
        }
      ],
      "stateMutability": "view",
      "type": "function"
    },
    {
      "inputs": [],
      "name": "nftB",
      "outputs": [
        {
          "internalType": "contract ITokenERC721",
          "name": "",
          "type": "address"
        }
      ],
      "stateMutability": "view",
      "type": "function"
    },
    {
      "inputs": [],
      "name": "owner",
      "outputs": [
        {
          "internalType": "address",
          "name": "",
          "type": "address"
        }
      ],
      "stateMutability": "view",
      "type": "function"
    },
    {
      "inputs": [
        {
          "internalType": "uint256",
          "name": "tokenId",
          "type": "uint256"
        }
      ],
      "name": "ownerOf",
      "outputs": [
        {
          "internalType": "address",
          "name": "",
          "type": "address"
        }
      ],
      "stateMutability": "view",
      "type": "function"
    },
    {
      "inputs": [
        {
          "internalType": "address",
          "name": "from",
          "type": "address"
        },
        {
          "internalType": "address",
          "name": "to",
          "type": "address"
        },
        {
          "internalType": "uint256",
          "name": "tokenId",
          "type": "uint256"
        }
      ],
      "name": "safeTransferFrom",
      "outputs": [],
      "stateMutability": "nonpayable",
      "type": "function"
    },
    {
      "inputs": [
        {
          "internalType": "address",
          "name": "from",
          "type": "address"
        },
        {
          "internalType": "address",
          "name": "to",
          "type": "address"
        },
        {
          "internalType": "uint256",
          "name": "tokenId",
          "type": "uint256"
        },
        {
          "internalType": "bytes",
          "name": "data",
          "type": "bytes"
        }
      ],
      "name": "safeTransferFrom",
      "outputs": [],
      "stateMutability": "nonpayable",
      "type": "function"
    },
    {
      "inputs": [
        {
          "internalType": "address",
          "name": "operator",
          "type": "address"
        },
        {
          "internalType": "bool",
          "name": "approved",
          "type": "bool"
        }
      ],
      "name": "setApprovalForAll",
      "outputs": [],
      "stateMutability": "nonpayable",
      "type": "function"
    },
    {
      "inputs": [
        {
          "internalType": "bytes4",
          "name": "interfaceId",
          "type": "bytes4"
        }
      ],
      "name": "supportsInterface",
      "outputs": [
        {
          "internalType": "bool",
          "name": "",
          "type": "bool"
        }
      ],
      "stateMutability": "view",
      "type": "function"
    },
    {
      "inputs": [],
      "name": "symbol",
      "outputs": [
        {
          "internalType": "string",
          "name": "",
          "type": "string"
        }
      ],
      "stateMutability": "view",
      "type": "function"
    },
    {
      "inputs": [],
      "name": "tokenA",
      "outputs": [
        {
          "internalType": "contract ITokenERC20",
          "name": "",
          "type": "address"
        }
      ],
      "stateMutability": "view",
      "type": "function"
    },
    {
      "inputs": [
        {
          "internalType": "uint256",
          "name": "tokenId",
          "type": "uint256"
        }
      ],
      "name": "tokenURI",
      "outputs": [
        {
          "internalType": "string",
          "name": "",
          "type": "string"
        }
      ],
      "stateMutability": "view",
      "type": "function"
    },
    {
      "inputs": [
        {
          "internalType": "uint256",
          "name": "",
          "type": "uint256"
        }
      ],
      "name": "transactionHistory",
      "outputs": [
        {
          "internalType": "address",
          "name": "user",
          "type": "address"
        },
        {
          "internalType": "uint256",
          "name": "amount",
          "type": "uint256"
        },
        {
          "internalType": "uint256",
          "name": "time",
          "type": "uint256"
        }
      ],
      "stateMutability": "view",
      "type": "function"
    },
    {
      "inputs": [
        {
          "internalType": "address",
          "name": "from",
          "type": "address"
        },
        {
          "internalType": "address",
          "name": "to",
          "type": "address"
        },
        {
          "internalType": "uint256",
          "name": "tokenId",
          "type": "uint256"
        }
      ],
      "name": "transferFrom",
      "outputs": [],
      "stateMutability": "nonpayable",
      "type": "function"
    },
    {
      "inputs": [
        {
          "internalType": "uint256",
          "name": "_tokenId",
          "type": "uint256"
        }
      ],
      "name": "withdrawNFT",
      "outputs": [],
      "stateMutability": "nonpayable",
      "type": "function"
    },
    {
      "inputs": [],
      "name": "withdrawn",
      "outputs": [],
      "stateMutability": "nonpayable",
      "type": "function"
    }
  ],
  "bytecode": "0x608034620003b3576001600160401b0390601f90601f1990620025f838819003848101841683019190868311848410176200039d578084926040948552833981010312620003b3576200005281620003d8565b93620000626020809301620003d8565b936200006d620003b8565b92600f84526e11195c1bdcda5d10dbdb9d1c9858dd608a1b8185015262000093620003b8565b906002825261444360f01b818301528451958487116200039d576000968754966001978881811c9116801562000392575b858210146200037e579081878493116200032b575b508490878311600114620002ca578a92620002be575b5050600019600383901b1c191690871b1787555b8251948511620002aa5785548681811c911680156200029f575b838210146200028b5790818587969594931162000232575b5081938511600114620001cd5750508592620001c1575b5050600019600383901b1c191690821b1790555b60078054600892909255600680546001600160a01b03199081166001600160a01b03968716179091556001600160a81b03199092169290931691909117600160a31b17909155600980549091163317905560405161220a9081620003ee8239f35b0151905038806200014c565b869593929193168588528388209388905b828210620002185750508411620001fe575b505050811b01905562000160565b015160001960f88460031b161c19169055388080620001f0565b8484015186558897909501949384019390810190620001de565b9091929394508688528288208580880160051c82019285891062000281575b9188978a9297969594930160051c01915b8281106200027257505062000135565b8a815588975089910162000262565b9250819262000251565b634e487b7160e01b88526022600452602488fd5b90607f16906200011d565b634e487b7160e01b87526041600452602487fd5b015190503880620000ef565b90848a9416918b8052868c20928c5b88828210620003145750508411620002fa575b505050811b01875562000103565b015160001960f88460031b161c19169055388080620002ec565b8385015186558d97909501949384019301620002d9565b909150898052848a208780850160051c82019287861062000374575b918b91869594930160051c01915b82811062000365575050620000d9565b8c81558594508b910162000355565b9250819262000347565b634e487b7160e01b8a52602260045260248afd5b90607f1690620000c4565b634e487b7160e01b600052604160045260246000fd5b600080fd5b60408051919082016001600160401b038111838210176200039d57604052565b51906001600160a01b0382168203620003b35756fe608060408181526004908136101561001657600080fd5b600092833560e01c90816301ffc9a71461199f57508063023245d7146116e957806306fdde031461163c578063081812fc1461161c578063095ea7b3146114ac5780630f80d243146113cf5780630fc63d10146113a657806323b872dd1461137c578063243e7a871461133657806332e2cea81461130d578063413d9c3a146112f057806342842e0e1461129e5780636352211e1461126d57806370a08231146111d75780638da5cb5b146111ae57806393c494841461118957806395d89b41146110a0578063a22cb46514610fd8578063b6b55f2514610d2c578063b88a802f14610b8e578063b88d4fde14610b06578063bd30558e1461060f578063c80ec52214610847578063c87b56dd14610634578063c89d5b8b1461060f578063cc8076f71461049f578063d82e396214610472578063e91a7ca614610238578063e985e9c5146101e45763fc7e286d1461016e57600080fd5b346101e05760203660031901126101e05760c09260ff919081906001600160a01b03610198611a53565b168152600a60205220805493600182015492600283015491600384015493015493815196875260208701528501526060840152818116608084015260081c16151560a0820152f35b8280fd5b838234610234578060031936011261023457602091610201611a53565b8261020a611a69565b9260018060a01b03809316815260058652209116600052825260ff81600020541690519015158152f35b5080fd5b50829034610234576020806003193601126101e05783359160018060a01b038060075416825184816024816331a9108f60e11b958682528a8d8301525afa9081156103fe578791610455575b50823391160361041b5760038652600b84528286206102a38154612016565b9055338652600a8452828620918783018054600260ff82160160ff81116104085760ff169060ff19161790556007541690835190815285888201528481602481855afa9081156103fe57906102ff9188916103d1575b506121a4565b803b156103cd57858561032b92898387518096819582946323b872dd60e01b8452309033908501612053565b03925af180156103c3579086916103ab575b5050600501805490600160401b82101561039857846103888361038e9360017f1c4b8380f61aea3d5d98cbadaf2e6b2e4f3d8ca8c0fce1290b26ac267158745f989796018155612121565b9061214f565b519283523392a280f35b634e487b7160e01b865260418752602486fd5b6103b490611ab4565b6103bf57848761033d565b8480fd5b83513d88823e3d90fd5b8580fd5b6103f19150863d88116103f7575b6103e98183611b2e565b810190612102565b896102f9565b503d6103df565b84513d89823e3d90fd5b634e487b7160e01b8a5260118b5260248afd5b825162461bcd60e51b81528088018590526014602482015273139bdd081d1a19481bdddb995c881bd98813919560621b6044820152606490fd5b61046c9150853d87116103f7576103e98183611b2e565b88610284565b83823461023457602036600319011261023457602090610498610493611a53565b6120bd565b9051908152f35b50823461060c5760209182600319360112610234579192906104bf611a53565b606060c085516104ce81611af8565b8481528488820152848782015284838201528460808201528460a0820152015260018060a01b03168152600a84528281209280519061050c82611af8565b84548252600193848601549587840196875260028101549183850192835260038201549060608601918252820154926005608087019360ff8616855260ff60a089019660081c16151586520194805195868c82549182815201918a528c8a20908a5b8181106105f9575050509061058a8760ff969594930388611b2e565b60c0880196875280519a8c8c526101008c0198518d8d015251908b01525160608a0152516080890152511660a087015251151560c0860152519460e08086015285518092528061012086019601925b8281106105e65785870386f35b83518752958101959281019284016105d9565b82548452928e0192918c01918c0161056e565b80fd5b83823461023457816003193601126102345760209060ff60075460a01c169051908152f35b5090346101e0576020908160031936011261084357819293813561065781611ed0565b85519261066384611b13565b828452821561082657829190819072184f03e93ff9f4daa797ed6e38ed64bf6a1f0160401b8281811015610819575b508790506904ee2d6d415b85acef8160201b8085101561080b575b5050662386f26fc10000808410156107fc575b506305f5e100808410156107ed575b50612710808410156107df575b505060648210156107cf575b600a809210156107c5575b6021908893600192816107208580940161071861070f82611b51565b9951998a611b2e565b808952611b51565b878b019890601f1901368a3750860101905b61078f575b505050509261076e9261077a9261078b958851958361075f8895518092888089019101611a0b565b84019151809386840190611a0b565b01038084520182611b2e565b925b51928284938452830190611a2e565b0390f35b600019019083906f181899199a1a9b1b9c1cb0b131b232b360811b8282061a8353049182156107c057919082610732565b610737565b91600101916106f3565b91906064600291049101916106e8565b9301929091049038806106dc565b600891949304920192386106cf565b601091949304920192386106c0565b9401939092049186386106ad565b8a95500492503880610692565b505050505061078b825161083981611b13565b600081529261077c565b8380fd5b5090346101e057826003193601126101e057338352602091600a835280842090600182015461012c8101809111610af3574210610ab95760018552600b84528085206108938154612016565b905560065481516370a0823160e01b8082523082870152946001600160a01b03929091908316908781602481855afa908115610aaf578991610a82575b508554809110610a35576108fc89928992875194858094819363a9059cbb60e01b8352338a84016120a2565b03925af18015610a2b57908792916109fe575b50602483600654169685519788938492835230908301525afa9384156109f45786946109be575b50610942600294612169565b82549180518381527f525f755cf37e950a7b04b93cee8178d9d0b97d9ca82540787d26d5802f6046fc873392a2600c81519661097d88611add565b33885280880194855288838901964288525560018952600b815282892054895252862094511660018060a01b03198554161784555160018401555191015580f35b93508484813d83116109ed575b6109d58183611b2e565b810103126109e857925192610942610936565b600080fd5b503d6109cb565b82513d88823e3d90fd5b610a1d90833d8511610a24575b610a158183611b2e565b81019061203b565b503861090f565b503d610a0b565b84513d8a823e3d90fd5b845162461bcd60e51b8152808401899052602160248201527f436f6e74726163742068617320696e73756666696369656e742062616c616e636044820152606560f81b6064820152608490fd5b90508781813d8311610aa8575b610a998183611b2e565b810103126109e85751386108d0565b503d610a8f565b85513d8b823e3d90fd5b6064939150519162461bcd60e51b83528201526015602482015274151bdad95b881a5cc81cdd1a5b1b081b1bd8dad959605a1b6044820152fd5b634e487b7160e01b865260118452602486fd5b50346101e05760803660031901126101e057610b20611a53565b610b28611a69565b6064359385906001600160401b03861161023457366023870112156102345785013594610b60610b5787611b51565b95519586611b2e565b85855236602487830101116102345785610b8b96602460209301838801378501015260443591611c5f565b80f35b5090346101e057826003193601126101e0573383526020600a815282842091825415610cf75760039060028652600b8352848620610bcc8154612016565b9055610bd88454612169565b610be1336120bd565b93610c0360028201958654610bf581612169565b610bfe82612169565b612095565b9283910155610c1182612169565b6006546001600160a01b039187918316803b156101e057848391610c4b93838b518096819582946340c10f1960e01b8452339084016120a2565b03925af18015610ced57610cd9575b506002945584518281527f106f923f993c2149d49b4255ff723acafa1f2d94393f561d3eda32ae348f7241843392a2845194610c9586611add565b33865283860192835242818701908152858852600b8552818820548852600c9094528620945185546001600160a01b03191691161784555160018401555191015580f35b610ce38291611ab4565b61060c5738610c5a565b87513d84823e3d90fd5b60649184519162461bcd60e51b83528201526011602482015270139bc81858dd1a5d994819195c1bdcda5d607a1b6044820152fd5b5090346101e0576020806003193601126108435781358015610f8957338552600a8252838520858052600b8352848620610d668154612016565b90556001810193845415610f6e575b60065486516323b872dd60e01b81526001600160a01b039391869082908616818c81610da58b30338c8501612053565b03925af18015610f6457610f47575b50610dfe84610dc4885442612075565b6301e13380610de78554926064610de160ff8a8a01541686612082565b04612082565b04610df760028601918254612095565b9055612095565b905585518381527f2da466a7b24304f47e87fa2e1e5a81b9831ce54fec19055ce277ca2f39ba42c4853392a269d3c21bcecceda1000000831015610e94575b50600293429055845194610e5086611add565b33865283860192835242818701908152878052600b8552818820548852600c9094528620945185546001600160a01b03191691161784555160018401555191015580f35b6008549060018201809211610f345790879181600855836007541691823b1561084357610ed9928492838b518096819582946340c10f1960e01b8452339084016120a2565b03925af18015610ced57610f20575b505060029360085486519081527f4cc0a9c4a99ddc700de1af2c9f916a7cbfdb71f14801ccff94061ad1ef8a8040853392a293610e3d565b610f2990611ab4565b6103cd578538610ee8565b634e487b7160e01b885260119052602487fd5b610f5d90863d8811610a2457610a158183611b2e565b5038610db4565b88513d8b823e3d90fd5b60ff60075460a01c168183019060ff19825416179055610d75565b50608492519162461bcd60e51b8352820152602560248201527f4465706f73697420616d6f756e74206d75737420626520677265617465722074604482015264068616e20360dc1b6064820152fd5b50346101e057806003193601126101e057610ff1611a53565b90602435918215158093036103bf576001600160a01b03169233841461106257503384526005602052808420836000526020528060002060ff1981541660ff8416179055519081527f17307eab39ab6107e8899845ad3d59bd9653f200f220920489ca2b5937696c3160203392a380f35b6020606492519162461bcd60e51b8352820152601960248201527822a9219b99189d1030b8383937bb32903a379031b0b63632b960391b6044820152fd5b50823461060c578060031936011261060c578151918160019283549384811c9181861695861561117f575b602096878510811461116c578899509688969785829a529182600014611145575050600114611108575b50505061078b929161077c910385611b2e565b91908693508083528383205b82841061112d575050508201018161077c61078b6110f5565b8054848a018601528895508794909301928101611114565b60ff19168782015293151560051b8601909301935084925061077c915061078b90506110f5565b634e487b7160e01b835260228a52602483fd5b92607f16926110cb565b8382346102345781600319360112610234576020905169d3c21bcecceda10000008152f35b83823461023457816003193601126102345760095490516001600160a01b039091168152602090f35b50919034610234576020366003190112610234576001600160a01b036111fb611a53565b169081156112185760208480858581526003845220549051908152f35b608490602085519162461bcd60e51b8352820152602960248201527f4552433732313a2061646472657373207a65726f206973206e6f7420612076616044820152683634b21037bbb732b960b91b6064820152fd5b50823461060c57602036600319011261060c575061128d60209235611bb3565b90516001600160a01b039091168152f35b50829034610234576112af36611a7f565b83519390929060208501906001600160401b038211868310176112db57610b8b96975052858452611c5f565b604188634e487b7160e01b6000525260246000fd5b8382346102345781600319360112610234576020905161012c8152f35b83823461023457816003193601126102345760075490516001600160a01b039091168152602090f35b5090346101e05760203660031901126101e0576060928291358152600c6020522060018060a01b0381541691600260018301549201549181519384526020840152820152f35b833461060c57610b8b61138e36611a7f565b916113a161139c8433611cfa565b611bfd565b611dc2565b83823461023457816003193601126102345760065490516001600160a01b039091168152602090f35b5090346101e05760203660031901126101e05780359160ff83168084036103bf576009546001600160a01b0316330361146957156114295750506007805460ff60a01b191660a09290921b60ff60a01b1691909117905580f35b906020606492519162461bcd60e51b8352820152601a6024820152790415052206d7573742062652067726561746572207468616e20360341b6044820152fd5b815162461bcd60e51b8152602081850152601d60248201527f4f6e6c7920746865206f776e65722063616e206368616e6765204150520000006044820152606490fd5b5090346101e057816003193601126101e0576114c6611a53565b6024359290916001600160a01b03919082806114e187611bb3565b169416938085146115cf578033149081156115ae575b501561154657848652602052842080546001600160a01b0319168317905561151e83611bb3565b167f8c5be1e5ebec7d5bd14f71427d1e84f3dd0314c0f7b2291e5b200ac8c7c3b9258480a480f35b6020608492519162461bcd60e51b8352820152603d60248201527f4552433732313a20617070726f76652063616c6c6572206973206e6f7420746f60448201527f6b656e206f776e6572206f7220617070726f76656420666f7220616c6c0000006064820152fd5b9050865260056020528186203360005260205260ff826000205416386114f7565b506020608492519162461bcd60e51b8352820152602160248201527f4552433732313a20617070726f76616c20746f2063757272656e74206f776e656044820152603960f91b6064820152fd5b50823461060c57602036600319011261060c575061128d60209235611bd9565b50823461060c578060031936011261060c5781519181825492600184811c918186169586156116df575b602096878510811461116c578899509688969785829a5291826000146111455750506001146116a25750505061078b929161077c910385611b2e565b91908693508280528383205b8284106116c7575050508201018161077c61078b6110f5565b8054848a0186015288955087949093019281016116ae565b92607f1692611666565b50829034610234576020806003193601126101e05760075482516331a9108f60e11b8152853581870181905293916001600160a01b0391602491859082908490829087165afa9081156103fe578791611982575b50823091160361194157868652600b845282862061175b8154612016565b9055611766336121a4565b338652600a8452828620878101805460011960ff82160160ff811161192f579060ff6005949392169060ff1916179055019081549283885b818110611902575b508410156118d05760075416803b156118cc5787876117de928b838951809681958294632142170760e11b8452339030908501612053565b03925af180156118c2576118af575b508154600019939084810190811161189d5780821061186e575b5050815497881561185d575050817f2aa1b4c95f3b2da9c955947fca584743ea0d457708fadf209c093061e98c4ccb95969701916118458383612121565b909182549160031b1b1916905555519283523392a280f35b634e487b7160e01b88526031905286fd5b6118969161187f6118899286612121565b9290549186612121565b91909260031b1c9161214f565b8880611807565b634e487b7160e01b895260118a528289fd5b6118bb90979197611ab4565b95886117ed565b85513d8a823e3d90fd5b8780fd5b845162461bcd60e51b8152808a01879052600d818401526c139195081b9bdd08199bdd5b99609a1b6044820152606490fd5b8861190d8287612121565b90549060031b1c146119275761192290612016565b61179e565b94508a6117a6565b634e487b7160e01b8a5260118b52848afd5b86601e6064928686519362461bcd60e51b85528401528201527f436f6e747261637420646f6573206e6f74206f776e2074686973204e465400006044820152fd5b6119999150853d87116103f7576103e98183611b2e565b8861173d565b849084346101e05760203660031901126101e0573563ffffffff60e01b81168091036101e057602092506380ac58cd60e01b81149081156119fa575b81156119e9575b5015158152f35b6301ffc9a760e01b149050836119e2565b635b5e139f60e01b811491506119db565b60005b838110611a1e5750506000910152565b8181015183820152602001611a0e565b90602091611a4781518092818552858086019101611a0b565b601f01601f1916010190565b600435906001600160a01b03821682036109e857565b602435906001600160a01b03821682036109e857565b60609060031901126109e8576001600160a01b039060043582811681036109e8579160243590811681036109e8579060443590565b6001600160401b038111611ac757604052565b634e487b7160e01b600052604160045260246000fd5b606081019081106001600160401b03821117611ac757604052565b60e081019081106001600160401b03821117611ac757604052565b602081019081106001600160401b03821117611ac757604052565b601f909101601f19168101906001600160401b03821190821017611ac757604052565b6001600160401b038111611ac757601f01601f191660200190565b15611b7357565b60405162461bcd60e51b8152602060048201526018602482015277115490cdcc8c4e881a5b9d985b1a59081d1bdad95b88125160421b6044820152606490fd5b6000908152600260205260409020546001600160a01b0316611bd6811515611b6c565b90565b611be281611ed0565b6000908152600460205260409020546001600160a01b031690565b15611c0457565b60405162461bcd60e51b815260206004820152602d60248201527f4552433732313a2063616c6c6572206973206e6f7420746f6b656e206f776e6560448201526c1c881bdc88185c1c1c9bdd9959609a1b6064820152608490fd5b90611c83939291611c7361139c8433611cfa565b611c7e838383611dc2565b611ef5565b15611c8a57565b60405162461bcd60e51b815280611ca360048201611ca7565b0390fd5b60809060208152603260208201527f4552433732313a207472616e7366657220746f206e6f6e20455243373231526560408201527131b2b4bb32b91034b6b83632b6b2b73a32b960711b60608201520190565b906001600160a01b038080611d0e84611bb3565b16931691838314938415611d41575b508315611d2b575b50505090565b611d3791929350611bd9565b1614388080611d25565b909350600052600560205260406000208260005260205260ff604060002054169238611d1d565b15611d6f57565b60405162461bcd60e51b815260206004820152602560248201527f4552433732313a207472616e736665722066726f6d20696e636f72726563742060448201526437bbb732b960d91b6064820152608490fd5b90611dea91611dd084611bb3565b6001600160a01b0393918416928492909183168414611d68565b16918215611e7f5781611e0791611e0086611bb3565b1614611d68565b7fddf252ad1be2c89b69c2b068fc378daa952ba7f163c4a11628f55a4df523b3ef600084815260046020526040812060018060a01b03199081815416905583825260036020526040822060001981540190558482526040822060018154019055858252600260205284604083209182541617905580a4565b60405162461bcd60e51b8152602060048201526024808201527f4552433732313a207472616e7366657220746f20746865207a65726f206164646044820152637265737360e01b6064820152608490fd5b600090815260026020526040902054611ef3906001600160a01b03161515611b6c565b565b9293600093909291803b1561200b57948491611f4f9660405180948193630a85bd0160e11b9788845233600485015260018060a01b0380921660248501526044840152608060648401528260209b8c976084830190611a2e565b0393165af1849181611fcb575b50611fba575050503d600014611fb2573d611f7681611b51565b90611f846040519283611b2e565b81528091833d92013e5b80519182611faf5760405162461bcd60e51b815280611ca360048201611ca7565b01fd5b506060611f8e565b6001600160e01b0319161492509050565b9091508581813d8311612004575b611fe38183611b2e565b810103126103bf57516001600160e01b0319811681036103bf579038611f5c565b503d611fd9565b505050915050600190565b60001981146120255760010190565b634e487b7160e01b600052601160045260246000fd5b908160209103126109e8575180151581036109e85790565b6001600160a01b03918216815291166020820152604081019190915260600190565b9190820391821161202557565b8181029291811591840414171561202557565b9190820180921161202557565b6001600160a01b039091168152602081019190915260400190565b60018060a01b0316600052600a6020526301e133806120fe60406000206064610de16120ed600184015442612075565b9260ff600482549201541690612082565b0490565b908160209103126109e857516001600160a01b03811681036109e85790565b80548210156121395760005260206000200190600090565b634e487b7160e01b600052603260045260246000fd5b919082549060031b600019811b9283911b16911916179055565b60008091604051602081019163f82c50f160e01b835260248201526024815261219181611add565b51906a636f6e736f6c652e6c6f675afa50565b60008091604051602081019163161765e160e11b835260018060a01b031660248201526024815261219181611add56fea26469706673582212206fffccc7a05ac6c6e226c99f7ed8e0b7341fbf1d276a6732f650d2dbcda7c62964736f6c63430008110033",
  "linkReferences": {},
  "deployedLinkReferences": {}
}