{
  "_format": "hh-sol-artifact-1",
  "contractName": "DepositContract",
  "sourceName": "contracts/DepositContract.sol",
  "abi": [
    {
      "inputs": [
        {
          "internalType": "address",
          "name": "_tokenA",
          "type": "address"
        },
        {
          "internalType": "address",
          "name": "_nftB",
          "type": "address"
        }
      ],
      "stateMutability": "nonpayable",
      "type": "constructor"
    },
    {
      "anonymous": false,
      "inputs": [
        {
          "indexed": true,
          "internalType": "address",
          "name": "owner",
          "type": "address"
        },
        {
          "indexed": true,
          "internalType": "address",
          "name": "approved",
          "type": "address"
        },
        {
          "indexed": true,
          "internalType": "uint256",
          "name": "tokenId",
          "type": "uint256"
        }
      ],
      "name": "Approval",
      "type": "event"
    },
    {
      "anonymous": false,
      "inputs": [
        {
          "indexed": true,
          "internalType": "address",
          "name": "owner",
          "type": "address"
        },
        {
          "indexed": true,
          "internalType": "address",
          "name": "operator",
          "type": "address"
        },
        {
          "indexed": false,
          "internalType": "bool",
          "name": "approved",
          "type": "bool"
        }
      ],
      "name": "ApprovalForAll",
      "type": "event"
    },
    {
      "anonymous": false,
      "inputs": [
        {
          "indexed": true,
          "internalType": "address",
          "name": "user",
          "type": "address"
        },
        {
          "indexed": false,
          "internalType": "uint256",
          "name": "amount",
          "type": "uint256"
        },
        {
          "indexed": false,
          "internalType": "uint256",
          "name": "time",
          "type": "uint256"
        }
      ],
      "name": "Deposited",
      "type": "event"
    },
    {
      "anonymous": false,
      "inputs": [
        {
          "indexed": true,
          "internalType": "address",
          "name": "user",
          "type": "address"
        },
        {
          "indexed": false,
          "internalType": "uint256",
          "name": "tokenId",
          "type": "uint256"
        }
      ],
      "name": "NFTMinted",
      "type": "event"
    },
    {
      "anonymous": false,
      "inputs": [
        {
          "indexed": true,
          "internalType": "address",
          "name": "user",
          "type": "address"
        },
        {
          "indexed": false,
          "internalType": "uint256",
          "name": "reward",
          "type": "uint256"
        },
        {
          "indexed": false,
          "internalType": "uint256",
          "name": "time",
          "type": "uint256"
        }
      ],
      "name": "RewardClaimed",
      "type": "event"
    },
    {
      "anonymous": false,
      "inputs": [
        {
          "indexed": true,
          "internalType": "address",
          "name": "from",
          "type": "address"
        },
        {
          "indexed": true,
          "internalType": "address",
          "name": "to",
          "type": "address"
        },
        {
          "indexed": true,
          "internalType": "uint256",
          "name": "tokenId",
          "type": "uint256"
        }
      ],
      "name": "Transfer",
      "type": "event"
    },
    {
      "anonymous": false,
      "inputs": [
        {
          "indexed": true,
          "internalType": "address",
          "name": "user",
          "type": "address"
        },
        {
          "indexed": false,
          "internalType": "uint256",
          "name": "amount",
          "type": "uint256"
        },
        {
          "indexed": false,
          "internalType": "uint256",
          "name": "time",
          "type": "uint256"
        }
      ],
      "name": "Withdrawn",
      "type": "event"
    },
    {
      "inputs": [],
      "name": "APR",
      "outputs": [
        {
          "internalType": "uint8",
          "name": "",
          "type": "uint8"
        }
      ],
      "stateMutability": "view",
      "type": "function"
    },
    {
      "inputs": [],
      "name": "LOCK_TIME",
      "outputs": [
        {
          "internalType": "uint256",
          "name": "",
          "type": "uint256"
        }
      ],
      "stateMutability": "view",
      "type": "function"
    },
    {
      "inputs": [],
      "name": "NFT_THRESHOLD",
      "outputs": [
        {
          "internalType": "uint256",
          "name": "",
          "type": "uint256"
        }
      ],
      "stateMutability": "view",
      "type": "function"
    },
    {
      "inputs": [
        {
          "internalType": "address",
          "name": "to",
          "type": "address"
        },
        {
          "internalType": "uint256",
          "name": "tokenId",
          "type": "uint256"
        }
      ],
      "name": "approve",
      "outputs": [],
      "stateMutability": "nonpayable",
      "type": "function"
    },
    {
      "inputs": [
        {
          "internalType": "address",
          "name": "owner",
          "type": "address"
        }
      ],
      "name": "balanceOf",
      "outputs": [
        {
          "internalType": "uint256",
          "name": "",
          "type": "uint256"
        }
      ],
      "stateMutability": "view",
      "type": "function"
    },
    {
      "inputs": [
        {
          "internalType": "address",
          "name": "_user",
          "type": "address"
        }
      ],
      "name": "calculateReward",
      "outputs": [
        {
          "internalType": "uint256",
          "name": "",
          "type": "uint256"
        }
      ],
      "stateMutability": "view",
      "type": "function"
    },
    {
      "inputs": [
        {
          "internalType": "uint8",
          "name": "_APR",
          "type": "uint8"
        }
      ],
      "name": "changeAPR",
      "outputs": [],
      "stateMutability": "nonpayable",
      "type": "function"
    },
    {
      "inputs": [],
      "name": "claimReward",
      "outputs": [],
      "stateMutability": "nonpayable",
      "type": "function"
    },
    {
      "inputs": [
        {
          "internalType": "uint256",
          "name": "_amount",
          "type": "uint256"
        }
      ],
      "name": "deposit",
      "outputs": [],
      "stateMutability": "nonpayable",
      "type": "function"
    },
    {
      "inputs": [
        {
          "internalType": "uint256",
          "name": "_tokenId",
          "type": "uint256"
        }
      ],
      "name": "depositNFT",
      "outputs": [],
      "stateMutability": "nonpayable",
      "type": "function"
    },
    {
      "inputs": [
        {
          "internalType": "address",
          "name": "",
          "type": "address"
        }
      ],
      "name": "deposits",
      "outputs": [
        {
          "internalType": "uint256",
          "name": "amount",
          "type": "uint256"
        },
        {
          "internalType": "uint256",
          "name": "depositTime",
          "type": "uint256"
        },
        {
          "internalType": "uint8",
          "name": "APR",
          "type": "uint8"
        },
        {
          "internalType": "bool",
          "name": "claimedNFT",
          "type": "bool"
        }
      ],
      "stateMutability": "view",
      "type": "function"
    },
    {
      "inputs": [
        {
          "internalType": "uint256",
          "name": "tokenId",
          "type": "uint256"
        }
      ],
      "name": "getApproved",
      "outputs": [
        {
          "internalType": "address",
          "name": "",
          "type": "address"
        }
      ],
      "stateMutability": "view",
      "type": "function"
    },
    {
      "inputs": [
        {
          "internalType": "address",
          "name": "_user",
          "type": "address"
        }
      ],
      "name": "getUserInfor",
      "outputs": [
        {
          "components": [
            {
              "internalType": "uint256",
              "name": "amount",
              "type": "uint256"
            },
            {
              "internalType": "uint256",
              "name": "depositTime",
              "type": "uint256"
            },
            {
              "internalType": "uint8",
              "name": "APR",
              "type": "uint8"
            },
            {
              "internalType": "bool",
              "name": "claimedNFT",
              "type": "bool"
            }
          ],
          "internalType": "struct DepositContract.UserInfor",
          "name": "",
          "type": "tuple"
        }
      ],
      "stateMutability": "view",
      "type": "function"
    },
    {
      "inputs": [
        {
          "internalType": "address",
          "name": "owner",
          "type": "address"
        },
        {
          "internalType": "address",
          "name": "operator",
          "type": "address"
        }
      ],
      "name": "isApprovedForAll",
      "outputs": [
        {
          "internalType": "bool",
          "name": "",
          "type": "bool"
        }
      ],
      "stateMutability": "view",
      "type": "function"
    },
    {
      "inputs": [],
      "name": "name",
      "outputs": [
        {
          "internalType": "string",
          "name": "",
          "type": "string"
        }
      ],
      "stateMutability": "view",
      "type": "function"
    },
    {
      "inputs": [],
      "name": "nftB",
      "outputs": [
        {
          "internalType": "contract ITokenERC721",
          "name": "",
          "type": "address"
        }
      ],
      "stateMutability": "view",
      "type": "function"
    },
    {
      "inputs": [],
      "name": "owner",
      "outputs": [
        {
          "internalType": "address",
          "name": "",
          "type": "address"
        }
      ],
      "stateMutability": "view",
      "type": "function"
    },
    {
      "inputs": [
        {
          "internalType": "uint256",
          "name": "tokenId",
          "type": "uint256"
        }
      ],
      "name": "ownerOf",
      "outputs": [
        {
          "internalType": "address",
          "name": "",
          "type": "address"
        }
      ],
      "stateMutability": "view",
      "type": "function"
    },
    {
      "inputs": [
        {
          "internalType": "address",
          "name": "from",
          "type": "address"
        },
        {
          "internalType": "address",
          "name": "to",
          "type": "address"
        },
        {
          "internalType": "uint256",
          "name": "tokenId",
          "type": "uint256"
        }
      ],
      "name": "safeTransferFrom",
      "outputs": [],
      "stateMutability": "nonpayable",
      "type": "function"
    },
    {
      "inputs": [
        {
          "internalType": "address",
          "name": "from",
          "type": "address"
        },
        {
          "internalType": "address",
          "name": "to",
          "type": "address"
        },
        {
          "internalType": "uint256",
          "name": "tokenId",
          "type": "uint256"
        },
        {
          "internalType": "bytes",
          "name": "data",
          "type": "bytes"
        }
      ],
      "name": "safeTransferFrom",
      "outputs": [],
      "stateMutability": "nonpayable",
      "type": "function"
    },
    {
      "inputs": [
        {
          "internalType": "address",
          "name": "operator",
          "type": "address"
        },
        {
          "internalType": "bool",
          "name": "approved",
          "type": "bool"
        }
      ],
      "name": "setApprovalForAll",
      "outputs": [],
      "stateMutability": "nonpayable",
      "type": "function"
    },
    {
      "inputs": [
        {
          "internalType": "bytes4",
          "name": "interfaceId",
          "type": "bytes4"
        }
      ],
      "name": "supportsInterface",
      "outputs": [
        {
          "internalType": "bool",
          "name": "",
          "type": "bool"
        }
      ],
      "stateMutability": "view",
      "type": "function"
    },
    {
      "inputs": [],
      "name": "symbol",
      "outputs": [
        {
          "internalType": "string",
          "name": "",
          "type": "string"
        }
      ],
      "stateMutability": "view",
      "type": "function"
    },
    {
      "inputs": [],
      "name": "tokenA",
      "outputs": [
        {
          "internalType": "contract ITokenERC20",
          "name": "",
          "type": "address"
        }
      ],
      "stateMutability": "view",
      "type": "function"
    },
    {
      "inputs": [
        {
          "internalType": "uint256",
          "name": "tokenId",
          "type": "uint256"
        }
      ],
      "name": "tokenURI",
      "outputs": [
        {
          "internalType": "string",
          "name": "",
          "type": "string"
        }
      ],
      "stateMutability": "view",
      "type": "function"
    },
    {
      "inputs": [
        {
          "internalType": "uint256",
          "name": "",
          "type": "uint256"
        }
      ],
      "name": "transactionHistory",
      "outputs": [
        {
          "internalType": "address",
          "name": "user",
          "type": "address"
        },
        {
          "internalType": "uint256",
          "name": "amount",
          "type": "uint256"
        },
        {
          "internalType": "uint256",
          "name": "time",
          "type": "uint256"
        }
      ],
      "stateMutability": "view",
      "type": "function"
    },
    {
      "inputs": [
        {
          "internalType": "address",
          "name": "from",
          "type": "address"
        },
        {
          "internalType": "address",
          "name": "to",
          "type": "address"
        },
        {
          "internalType": "uint256",
          "name": "tokenId",
          "type": "uint256"
        }
      ],
      "name": "transferFrom",
      "outputs": [],
      "stateMutability": "nonpayable",
      "type": "function"
    },
    {
      "inputs": [
        {
          "internalType": "uint256",
          "name": "_tokenId",
          "type": "uint256"
        }
      ],
      "name": "withdrawNFT",
      "outputs": [],
      "stateMutability": "nonpayable",
      "type": "function"
    },
    {
      "inputs": [],
      "name": "withdrawn",
      "outputs": [],
      "stateMutability": "nonpayable",
      "type": "function"
    }
  ],
  "bytecode": "0x608034620003b3576001600160401b0390601f90601f1990620023cc38819003848101841683019190868311848410176200039d578084926040948552833981010312620003b3576200005281620003d8565b93620000626020809301620003d8565b936200006d620003b8565b92600f84526e11195c1bdcda5d10dbdb9d1c9858dd608a1b8185015262000093620003b8565b906002825261444360f01b818301528451958487116200039d576000968754966001978881811c9116801562000392575b858210146200037e579081878493116200032b575b508490878311600114620002ca578a92620002be575b5050600019600383901b1c191690871b1787555b8251948511620002aa5785548681811c911680156200029f575b838210146200028b5790818587969594931162000232575b5081938511600114620001cd5750508592620001c1575b5050600019600383901b1c191690821b1790555b60078054600892909255600680546001600160a01b03199081166001600160a01b03968716179091556001600160a81b03199092169290931691909117600160a31b179091556009805490911633179055604051611fde9081620003ee8239f35b0151905038806200014c565b869593929193168588528388209388905b828210620002185750508411620001fe575b505050811b01905562000160565b015160001960f88460031b161c19169055388080620001f0565b8484015186558897909501949384019390810190620001de565b9091929394508688528288208580880160051c82019285891062000281575b9188978a9297969594930160051c01915b8281106200027257505062000135565b8a815588975089910162000262565b9250819262000251565b634e487b7160e01b88526022600452602488fd5b90607f16906200011d565b634e487b7160e01b87526041600452602487fd5b015190503880620000ef565b90848a9416918b8052868c20928c5b88828210620003145750508411620002fa575b505050811b01875562000103565b015160001960f88460031b161c19169055388080620002ec565b8385015186558d97909501949384019301620002d9565b909150898052848a208780850160051c82019287861062000374575b918b91869594930160051c01915b82811062000365575050620000d9565b8c81558594508b910162000355565b9250819262000347565b634e487b7160e01b8a52602260045260248afd5b90607f1690620000c4565b634e487b7160e01b600052604160045260246000fd5b600080fd5b60408051919082016001600160401b038111838210176200039d57604052565b51906001600160a01b0382168203620003b35756fe608060408181526004918236101561001657600080fd5b600092833560e01c91826301ffc9a71461179857508163023245d71461163757816306fdde031461158a578163081812fc1461156a578163095ea7b3146113fa5781630f80d2431461131d5781630fc63d10146112f457816323b872dd146112ca578163243e7a871461128657816332e2cea81461125d578163413d9c3a1461124057816342842e0e146111ef5781636352211e146111be57816370a08231146111285781638da5cb5b146110ff57816393c49484146110da57816395d89b4114610ff1578163a22cb46514610f27578163b6b55f2514610c76578163b88a802f14610a76578163b88d4fde146109ec578163bd30558e146109c7578163c80ec522146106ca578163c87b56dd146104b7578163cc8076f714610413578163d82e3962146103e6578163e91a7ca61461021557508063e985e9c5146101c65763fc7e286d1461016457600080fd5b346101c25760203660031901126101c25760809160ff9082906001600160a01b0361018d61184b565b168152600a602052208054926002600183015492015491815194855260208501528282169084015260081c1615156060820152f35b5080fd5b50346101c257806003193601126101c2576020916101e261184b565b826101eb611861565b9260018060a01b03809316815260058652209116600052825260ff81600020541690519015158152f35b8383346101c257602090816003193601126103e25783359360018060a01b0394856007541693835181816024816331a9108f60e11b998a825287898301525afa90811561036f5787916103c5575b50873391160361038c5760038652600b81528386206102828154611e2c565b9055338652600a815260028487200196875497600260ff8a16019860ff8a116103795760ff899a169060ff19161790556007541694845190815282848201528181602481895afa91821561036f57906102e492918892610342575b5050611f65565b833b1561033e5761030f9385928385518097819582946323b872dd60e01b8452309033908501611e69565b03925af190811561033557506103225750f35b61032b906118ca565b6103325780f35b80fd5b513d84823e3d90fd5b8480fd5b6103619250803d10610368575b6103598183611944565b810190611f46565b88806102dd565b503d61034f565b85513d89823e3d90fd5b634e487b7160e01b895260118652602489fd5b9050606492519162461bcd60e51b83528201526014602482015273139bdd081d1a19481bdddb995c881bd98813919560621b6044820152fd5b6103dc9150823d8411610368576103598183611944565b88610263565b8280fd5b5050346101c25760203660031901126101c25760209061040c61040761184b565b611ef9565b9051908152f35b5050346101c25760203660031901126101c2578060809261043261184b565b81606084516104408161190e565b8281528260208201528286820152015260018060a01b03168152600a6020522081519161046c8361190e565b60ff825493848152600260018501549460208301958652015493826060858401938288168552019560081c161515855283519586525160208601525116908301525115156060820152f35b9050346103e257602090816003193601126106c65781929381356104da81611ce6565b8551926104e684611929565b82845282156106a957829190819072184f03e93ff9f4daa797ed6e38ed64bf6a1f0160401b828181101561069c575b508790506904ee2d6d415b85acef8160201b8085101561068e575b5050662386f26fc100008084101561067f575b506305f5e10080841015610670575b5061271080841015610662575b50506064821015610652575b600a80921015610648575b6021908893600192816105a38580940161059b61059282611967565b9951998a611944565b808952611967565b878b019890601f1901368a3750860101905b610612575b50505050926105f1926105fd9261060e95885195836105e28895518092888089019101611803565b84019151809386840190611803565b01038084520182611944565b925b51928284938452830190611826565b0390f35b600019019083906f181899199a1a9b1b9c1cb0b131b232b360811b8282061a835304918215610643579190826105b5565b6105ba565b9160010191610576565b919060646002910491019161056b565b93019290910490388061055f565b60089194930492019238610552565b60109194930492019238610543565b940193909204918638610530565b8a95500492503880610515565b505050505061060e82516106bc81611929565b60008152926105ff565b8380fd5b9050346103e257826003193601126103e257338352602091600a8352808420906106f682541515611e8b565b600182015461012c81018091116109b457421061097a5760018552600b84528085206107228154611e2c565b905560065481516370a0823160e01b8082523082870152946001600160a01b03929091908316908781602481855afa908115610970578991610943575b5085548091106108f65761078b89928992875194858094819363a9059cbb60e01b8352338a8401611ecb565b03925af180156108ec57908792916108bf575b50602483600654169685519788938492835230908301525afa9384156108b5578694610880575b5060008060029584518881019163f82c50f160e01b83526024820152602481526107ee816118f3565b51906a636f6e736f6c652e6c6f675afa50825491805183815242878201527f92ccf450a286a957af52509bc1c9939d1a6a481783e142e41e2499f0bb66ebc6823392a2600c81519661083f886118f3565b33885280880194855288838901964288525560018952600b815282892054895252862094511660018060a01b03198554161784555160018401555191015580f35b93508484813d83116108ae575b6108978183611944565b810103126108a95792519260006107c5565b600080fd5b503d61088d565b82513d88823e3d90fd5b6108de90833d85116108e5575b6108d68183611944565b810190611e51565b503861079e565b503d6108cc565b84513d8a823e3d90fd5b845162461bcd60e51b8152808401899052602160248201527f436f6e74726163742068617320696e73756666696369656e742062616c616e636044820152606560f81b6064820152608490fd5b90508781813d8311610969575b61095a8183611944565b810103126108a957513861075f565b503d610950565b85513d8b823e3d90fd5b6064939150519162461bcd60e51b83528201526015602482015274151bdad95b881a5cc81cdd1a5b1b081b1bd8dad959605a1b6044820152fd5b634e487b7160e01b865260118452602486fd5b5050346101c257816003193601126101c25760209060ff60075460a01c169051908152f35b919050346103e25760803660031901126103e257610a0861184b565b610a10611861565b6064359385906001600160401b0386116101c257366023870112156101c25785013594610a48610a3f87611967565b95519586611944565b85855236602487830101116101c25785610a7396602460209301838801378501015260443591611a75565b80f35b9050346103e257826003193601126103e2573383526020600a8152610a9f838520541515611e8b565b600291828552600b8252838520610ab68154611e2c565b9055610ac133611ef9565b8015610c3d57610af6838260018060a01b03948560065416908a8a5180968195829463a9059cbb60e01b845233908401611ecb565b03925af18015610c3357600096949193610c0293889795610bf493610c16575b50865181815242858201527ff01da32686223933d8a18a391060918c7f11a3648639edd87ae013e2e2731743883392a2858a885192610b54846118f3565b338452868401908152848a80860193428552858152600b8a52818120548152600c8a522094511660018060a01b031985541617845551600184015551910155848952600b8352858920548952600c8352858920541694848952600b8352808920548952600c83526001818a20015494808a52600b8452818a20548a52600c8452818a2001549051948593840196635b4de57b60e11b8852602485016118ac565b03601f198101835282611944565b51906a636f6e736f6c652e6c6f675afa5080f35b610c2c90853d87116108e5576108d68183611944565b5038610b16565b86513d89823e3d90fd5b5060649184519162461bcd60e51b835282015260146024820152734e6f207265776172647320617661696c61626c6560601b6044820152fd5b9050346103e2576020806003193601126106c65781358015610ed857338552600a825283852092858052600b8352848620610cb18154611e2c565b905560065485516323b872dd60e01b81526001600160a01b039291859082908516818b81610ce38a3033848c01611e69565b03925af18015610ece57610eb1575b508454838101809111610e9c578555855183815242858201527f73a19dd210f1a7f902193214c0ee91dd35ee5b4d920cba8d519eca65a7b488ca873392a269d3c21bcecceda100000083101580610e8a575b610db9575b506002934260018201558460ff60075460a01c1691019060ff19825416179055845194610d75866118f3565b33865283860192835242818701908152878052600b8552818820548852600c9094528620945185546001600160a01b03191691161784555160018401555191015580f35b6008549060018201809211610e775790879181600855836007541691823b156106c657610dfe928492838b518096819582946340c10f1960e01b845233908401611ecb565b03925af18015610e6d57610e55575b505060029360085486519081527f4cc0a9c4a99ddc700de1af2c9f916a7cbfdb71f14801ccff94061ad1ef8a8040853392a2808501805461ff00191661010017905593610d49565b610e5e906118ca565b610e69578538610e0d565b8580fd5b87513d84823e3d90fd5b634e487b7160e01b885260119052602487fd5b5060ff600286015460081c1615610d44565b601182634e487b7160e01b6000525260246000fd5b610ec790853d87116108e5576108d68183611944565b5038610cf2565b87513d8a823e3d90fd5b50608492519162461bcd60e51b8352820152602560248201527f4465706f73697420616d6f756e74206d75737420626520677265617465722074604482015264068616e20360dc1b6064820152fd5b919050346103e257806003193601126103e257610f4261184b565b906024359182151580930361033e576001600160a01b031692338414610fb357503384526005602052808420836000526020528060002060ff1981541660ff8416179055519081527f17307eab39ab6107e8899845ad3d59bd9653f200f220920489ca2b5937696c3160203392a380f35b6020606492519162461bcd60e51b8352820152601960248201527822a9219b99189d1030b8383937bb32903a379031b0b63632b960391b6044820152fd5b8284346103325780600319360112610332578151918160019283549384811c918186169586156110d0575b60209687851081146110bd578899509688969785829a529182600014611096575050600114611059575b50505061060e92916105ff910385611944565b91908693508083528383205b82841061107e57505050820101816105ff61060e611046565b8054848a018601528895508794909301928101611065565b60ff19168782015293151560051b860190930193508492506105ff915061060e9050611046565b634e487b7160e01b835260228a52602483fd5b92607f169261101c565b5050346101c257816003193601126101c2576020905169d3c21bcecceda10000008152f35b5050346101c257816003193601126101c25760095490516001600160a01b039091168152602090f35b839150346101c25760203660031901126101c2576001600160a01b0361114c61184b565b169081156111695760208480858581526003845220549051908152f35b608490602085519162461bcd60e51b8352820152602960248201527f4552433732313a2061646472657373207a65726f206973206e6f7420612076616044820152683634b21037bbb732b960b91b6064820152fd5b82843461033257602036600319011261033257506111de602092356119c9565b90516001600160a01b039091168152f35b8383346101c2576111ff36611877565b83519390929060208501906001600160401b0382118683101761122b57610a7396975052858452611a75565b604188634e487b7160e01b6000525260246000fd5b5050346101c257816003193601126101c2576020905161012c8152f35b5050346101c257816003193601126101c25760075490516001600160a01b039091168152602090f35b9050346103e25760203660031901126103e257358252600c6020529081902080546001820154600290920154925192839261060e926001600160a01b0316846118ac565b833461033257610a736112dc36611877565b916112ef6112ea8433611b10565b611a13565b611bd8565b5050346101c257816003193601126101c25760065490516001600160a01b039091168152602090f35b9050346103e25760203660031901126103e25780359160ff831680840361033e576009546001600160a01b031633036113b757156113775750506007805460ff60a01b191660a09290921b60ff60a01b1691909117905580f35b906020606492519162461bcd60e51b8352820152601a6024820152790415052206d7573742062652067726561746572207468616e20360341b6044820152fd5b815162461bcd60e51b8152602081850152601d60248201527f4f6e6c7920746865206f776e65722063616e206368616e6765204150520000006044820152606490fd5b9050346103e257816003193601126103e25761141461184b565b6024359290916001600160a01b039190828061142f876119c9565b1694169380851461151d578033149081156114fc575b501561149457848652602052842080546001600160a01b0319168317905561146c836119c9565b167f8c5be1e5ebec7d5bd14f71427d1e84f3dd0314c0f7b2291e5b200ac8c7c3b9258480a480f35b6020608492519162461bcd60e51b8352820152603d60248201527f4552433732313a20617070726f76652063616c6c6572206973206e6f7420746f60448201527f6b656e206f776e6572206f7220617070726f76656420666f7220616c6c0000006064820152fd5b9050865260056020528186203360005260205260ff82600020541638611445565b506020608492519162461bcd60e51b8352820152602160248201527f4552433732313a20617070726f76616c20746f2063757272656e74206f776e656044820152603960f91b6064820152fd5b82843461033257602036600319011261033257506111de602092356119ef565b82843461033257806003193601126103325781519181825492600184811c9181861695861561162d575b60209687851081146110bd578899509688969785829a5291826000146110965750506001146115f05750505061060e92916105ff910385611944565b91908693508280528383205b82841061161557505050820101816105ff61060e611046565b8054848a0186015288955087949093019281016115fc565b92607f16926115b4565b919050346103e2576020806003193601126106c65782359060018060a01b039060248183600754168651928380926331a9108f60e11b8252888b8301525afa90811561036f57879161177b575b50823091160361173957600a90858752600b81528487206116a58154611e2c565b90556116b033611f65565b33875252600283862001805460011960ff82160160ff81116117265760ff1660ff199190911617905560075485929116803b156103e257611709948385518097819582946323b872dd60e01b8452339030908501611e69565b03925af1908115610335575061171d575080f35b610a73906118ca565b634e487b7160e01b885260118752602488fd5b8460649185519162461bcd60e51b8352820152601e60248201527f436f6e747261637420646f6573206e6f74206f776e2074686973204e465400006044820152fd5b6117929150823d8411610368576103598183611944565b38611684565b8491346103e25760203660031901126103e2573563ffffffff60e01b81168091036103e257602092506380ac58cd60e01b81149081156117f2575b81156117e1575b5015158152f35b6301ffc9a760e01b149050836117da565b635b5e139f60e01b811491506117d3565b60005b8381106118165750506000910152565b8181015183820152602001611806565b9060209161183f81518092818552858086019101611803565b601f01601f1916010190565b600435906001600160a01b03821682036108a957565b602435906001600160a01b03821682036108a957565b60609060031901126108a9576001600160a01b039060043582811681036108a9579160243590811681036108a9579060443590565b604091949392606082019560018060a01b0316825260208201520152565b6001600160401b0381116118dd57604052565b634e487b7160e01b600052604160045260246000fd5b606081019081106001600160401b038211176118dd57604052565b608081019081106001600160401b038211176118dd57604052565b602081019081106001600160401b038211176118dd57604052565b601f909101601f19168101906001600160401b038211908210176118dd57604052565b6001600160401b0381116118dd57601f01601f191660200190565b1561198957565b60405162461bcd60e51b8152602060048201526018602482015277115490cdcc8c4e881a5b9d985b1a59081d1bdad95b88125160421b6044820152606490fd5b6000908152600260205260409020546001600160a01b03166119ec811515611982565b90565b6119f881611ce6565b6000908152600460205260409020546001600160a01b031690565b15611a1a57565b60405162461bcd60e51b815260206004820152602d60248201527f4552433732313a2063616c6c6572206973206e6f7420746f6b656e206f776e6560448201526c1c881bdc88185c1c1c9bdd9959609a1b6064820152608490fd5b90611a99939291611a896112ea8433611b10565b611a94838383611bd8565b611d0b565b15611aa057565b60405162461bcd60e51b815280611ab960048201611abd565b0390fd5b60809060208152603260208201527f4552433732313a207472616e7366657220746f206e6f6e20455243373231526560408201527131b2b4bb32b91034b6b83632b6b2b73a32b960711b60608201520190565b906001600160a01b038080611b24846119c9565b16931691838314938415611b57575b508315611b41575b50505090565b611b4d919293506119ef565b1614388080611b3b565b909350600052600560205260406000208260005260205260ff604060002054169238611b33565b15611b8557565b60405162461bcd60e51b815260206004820152602560248201527f4552433732313a207472616e736665722066726f6d20696e636f72726563742060448201526437bbb732b960d91b6064820152608490fd5b90611c0091611be6846119c9565b6001600160a01b0393918416928492909183168414611b7e565b16918215611c955781611c1d91611c16866119c9565b1614611b7e565b7fddf252ad1be2c89b69c2b068fc378daa952ba7f163c4a11628f55a4df523b3ef600084815260046020526040812060018060a01b03199081815416905583825260036020526040822060001981540190558482526040822060018154019055858252600260205284604083209182541617905580a4565b60405162461bcd60e51b8152602060048201526024808201527f4552433732313a207472616e7366657220746f20746865207a65726f206164646044820152637265737360e01b6064820152608490fd5b600090815260026020526040902054611d09906001600160a01b03161515611982565b565b9293600093909291803b15611e2157948491611d659660405180948193630a85bd0160e11b9788845233600485015260018060a01b0380921660248501526044840152608060648401528260209b8c976084830190611826565b0393165af1849181611de1575b50611dd0575050503d600014611dc8573d611d8c81611967565b90611d9a6040519283611944565b81528091833d92013e5b80519182611dc55760405162461bcd60e51b815280611ab960048201611abd565b01fd5b506060611da4565b6001600160e01b0319161492509050565b9091508581813d8311611e1a575b611df98183611944565b8101031261033e57516001600160e01b03198116810361033e579038611d72565b503d611def565b505050915050600190565b6000198114611e3b5760010190565b634e487b7160e01b600052601160045260246000fd5b908160209103126108a9575180151581036108a95790565b6001600160a01b03918216815291166020820152604081019190915260600190565b15611e9257565b60405162461bcd60e51b8152602060048201526011602482015270139bc81858dd1a5d994819195c1bdcda5d607a1b6044820152606490fd5b6001600160a01b039091168152602081019190915260400190565b81810292918115918404141715611e3b57565b60018060a01b0316600052600a60205260406000206001810154420390428211611e3b576301e13380916064611f3c8360ff6002611f4296549201541690611ee6565b04611ee6565b0490565b908160209103126108a957516001600160a01b03811681036108a95790565b60008091604051602081019163161765e160e11b835260018060a01b0316602482015260248152611f95816118f3565b51906a636f6e736f6c652e6c6f675afa5056fea2646970667358221220f7072193a0256bb91cf61265a61e314df87493a16d38f639904037808006744464736f6c63430008110033",
  "linkReferences": {},
  "deployedLinkReferences": {}
}