{
  "_format": "hh-sol-artifact-1",
  "contractName": "DepositContract",
  "sourceName": "contracts/DepositContract.sol",
  "abi": [
    {
      "inputs": [
        {
          "internalType": "address",
          "name": "_tokenA",
          "type": "address"
        },
        {
          "internalType": "address",
          "name": "_nftB",
          "type": "address"
        }
      ],
      "stateMutability": "nonpayable",
      "type": "constructor"
    },
    {
      "anonymous": false,
      "inputs": [
        {
          "indexed": true,
          "internalType": "address",
          "name": "owner",
          "type": "address"
        },
        {
          "indexed": true,
          "internalType": "address",
          "name": "approved",
          "type": "address"
        },
        {
          "indexed": true,
          "internalType": "uint256",
          "name": "tokenId",
          "type": "uint256"
        }
      ],
      "name": "Approval",
      "type": "event"
    },
    {
      "anonymous": false,
      "inputs": [
        {
          "indexed": true,
          "internalType": "address",
          "name": "owner",
          "type": "address"
        },
        {
          "indexed": true,
          "internalType": "address",
          "name": "operator",
          "type": "address"
        },
        {
          "indexed": false,
          "internalType": "bool",
          "name": "approved",
          "type": "bool"
        }
      ],
      "name": "ApprovalForAll",
      "type": "event"
    },
    {
      "anonymous": false,
      "inputs": [
        {
          "indexed": true,
          "internalType": "address",
          "name": "user",
          "type": "address"
        },
        {
          "indexed": false,
          "internalType": "uint256",
          "name": "amount",
          "type": "uint256"
        }
      ],
      "name": "Deposited",
      "type": "event"
    },
    {
      "anonymous": false,
      "inputs": [
        {
          "indexed": true,
          "internalType": "address",
          "name": "user",
          "type": "address"
        },
        {
          "indexed": false,
          "internalType": "uint256",
          "name": "tokenId",
          "type": "uint256"
        }
      ],
      "name": "NFTDeposited",
      "type": "event"
    },
    {
      "anonymous": false,
      "inputs": [
        {
          "indexed": true,
          "internalType": "address",
          "name": "user",
          "type": "address"
        },
        {
          "indexed": false,
          "internalType": "uint256",
          "name": "tokenId",
          "type": "uint256"
        }
      ],
      "name": "NFTMinted",
      "type": "event"
    },
    {
      "anonymous": false,
      "inputs": [
        {
          "indexed": true,
          "internalType": "address",
          "name": "user",
          "type": "address"
        },
        {
          "indexed": false,
          "internalType": "uint256",
          "name": "tokenId",
          "type": "uint256"
        }
      ],
      "name": "NFTWithdrawn",
      "type": "event"
    },
    {
      "anonymous": false,
      "inputs": [
        {
          "indexed": true,
          "internalType": "address",
          "name": "user",
          "type": "address"
        },
        {
          "indexed": false,
          "internalType": "uint256",
          "name": "amount",
          "type": "uint256"
        }
      ],
      "name": "RewardClaimed",
      "type": "event"
    },
    {
      "anonymous": false,
      "inputs": [
        {
          "indexed": true,
          "internalType": "address",
          "name": "from",
          "type": "address"
        },
        {
          "indexed": true,
          "internalType": "address",
          "name": "to",
          "type": "address"
        },
        {
          "indexed": true,
          "internalType": "uint256",
          "name": "tokenId",
          "type": "uint256"
        }
      ],
      "name": "Transfer",
      "type": "event"
    },
    {
      "anonymous": false,
      "inputs": [
        {
          "indexed": true,
          "internalType": "address",
          "name": "user",
          "type": "address"
        },
        {
          "indexed": false,
          "internalType": "uint256",
          "name": "amount",
          "type": "uint256"
        }
      ],
      "name": "WithdrawnToken",
      "type": "event"
    },
    {
      "inputs": [],
      "name": "APR",
      "outputs": [
        {
          "internalType": "uint8",
          "name": "",
          "type": "uint8"
        }
      ],
      "stateMutability": "view",
      "type": "function"
    },
    {
      "inputs": [],
      "name": "LOCK_TIME",
      "outputs": [
        {
          "internalType": "uint256",
          "name": "",
          "type": "uint256"
        }
      ],
      "stateMutability": "view",
      "type": "function"
    },
    {
      "inputs": [],
      "name": "NFT_THRESHOLD",
      "outputs": [
        {
          "internalType": "uint256",
          "name": "",
          "type": "uint256"
        }
      ],
      "stateMutability": "view",
      "type": "function"
    },
    {
      "inputs": [
        {
          "internalType": "address",
          "name": "to",
          "type": "address"
        },
        {
          "internalType": "uint256",
          "name": "tokenId",
          "type": "uint256"
        }
      ],
      "name": "approve",
      "outputs": [],
      "stateMutability": "nonpayable",
      "type": "function"
    },
    {
      "inputs": [
        {
          "internalType": "address",
          "name": "owner",
          "type": "address"
        }
      ],
      "name": "balanceOf",
      "outputs": [
        {
          "internalType": "uint256",
          "name": "",
          "type": "uint256"
        }
      ],
      "stateMutability": "view",
      "type": "function"
    },
    {
      "inputs": [
        {
          "internalType": "address",
          "name": "_user",
          "type": "address"
        }
      ],
      "name": "calculateReward",
      "outputs": [
        {
          "internalType": "uint256",
          "name": "",
          "type": "uint256"
        }
      ],
      "stateMutability": "view",
      "type": "function"
    },
    {
      "inputs": [
        {
          "internalType": "uint8",
          "name": "_APR",
          "type": "uint8"
        }
      ],
      "name": "changeAPR",
      "outputs": [],
      "stateMutability": "nonpayable",
      "type": "function"
    },
    {
      "inputs": [],
      "name": "claimReward",
      "outputs": [],
      "stateMutability": "nonpayable",
      "type": "function"
    },
    {
      "inputs": [
        {
          "internalType": "uint256",
          "name": "_amount",
          "type": "uint256"
        }
      ],
      "name": "deposit",
      "outputs": [],
      "stateMutability": "nonpayable",
      "type": "function"
    },
    {
      "inputs": [
        {
          "internalType": "uint256",
          "name": "_tokenId",
          "type": "uint256"
        }
      ],
      "name": "depositNFT",
      "outputs": [],
      "stateMutability": "nonpayable",
      "type": "function"
    },
    {
      "inputs": [
        {
          "internalType": "address",
          "name": "",
          "type": "address"
        }
      ],
      "name": "deposits",
      "outputs": [
        {
          "internalType": "uint256",
          "name": "amount",
          "type": "uint256"
        },
        {
          "internalType": "uint256",
          "name": "depositTime",
          "type": "uint256"
        },
        {
          "internalType": "uint256",
          "name": "reward",
          "type": "uint256"
        },
        {
          "internalType": "uint256",
          "name": "receiveReward",
          "type": "uint256"
        },
        {
          "internalType": "uint8",
          "name": "APR",
          "type": "uint8"
        },
        {
          "internalType": "bool",
          "name": "claimedNFT",
          "type": "bool"
        }
      ],
      "stateMutability": "view",
      "type": "function"
    },
    {
      "inputs": [
        {
          "internalType": "uint256",
          "name": "tokenId",
          "type": "uint256"
        }
      ],
      "name": "getApproved",
      "outputs": [
        {
          "internalType": "address",
          "name": "",
          "type": "address"
        }
      ],
      "stateMutability": "view",
      "type": "function"
    },
    {
      "inputs": [
        {
          "internalType": "address",
          "name": "_user",
          "type": "address"
        }
      ],
      "name": "getUserInfor",
      "outputs": [
        {
          "components": [
            {
              "internalType": "uint256",
              "name": "amount",
              "type": "uint256"
            },
            {
              "internalType": "uint256",
              "name": "depositTime",
              "type": "uint256"
            },
            {
              "internalType": "uint256",
              "name": "reward",
              "type": "uint256"
            },
            {
              "internalType": "uint256",
              "name": "receiveReward",
              "type": "uint256"
            },
            {
              "internalType": "uint8",
              "name": "APR",
              "type": "uint8"
            },
            {
              "internalType": "bool",
              "name": "claimedNFT",
              "type": "bool"
            },
            {
              "internalType": "uint256[]",
              "name": "userNft",
              "type": "uint256[]"
            }
          ],
          "internalType": "struct DepositContract.UserInfor",
          "name": "",
          "type": "tuple"
        }
      ],
      "stateMutability": "view",
      "type": "function"
    },
    {
      "inputs": [
        {
          "internalType": "address",
          "name": "owner",
          "type": "address"
        },
        {
          "internalType": "address",
          "name": "operator",
          "type": "address"
        }
      ],
      "name": "isApprovedForAll",
      "outputs": [
        {
          "internalType": "bool",
          "name": "",
          "type": "bool"
        }
      ],
      "stateMutability": "view",
      "type": "function"
    },
    {
      "inputs": [],
      "name": "name",
      "outputs": [
        {
          "internalType": "string",
          "name": "",
          "type": "string"
        }
      ],
      "stateMutability": "view",
      "type": "function"
    },
    {
      "inputs": [],
      "name": "nftB",
      "outputs": [
        {
          "internalType": "contract ITokenERC721",
          "name": "",
          "type": "address"
        }
      ],
      "stateMutability": "view",
      "type": "function"
    },
    {
      "inputs": [],
      "name": "owner",
      "outputs": [
        {
          "internalType": "address",
          "name": "",
          "type": "address"
        }
      ],
      "stateMutability": "view",
      "type": "function"
    },
    {
      "inputs": [
        {
          "internalType": "uint256",
          "name": "tokenId",
          "type": "uint256"
        }
      ],
      "name": "ownerOf",
      "outputs": [
        {
          "internalType": "address",
          "name": "",
          "type": "address"
        }
      ],
      "stateMutability": "view",
      "type": "function"
    },
    {
      "inputs": [
        {
          "internalType": "address",
          "name": "from",
          "type": "address"
        },
        {
          "internalType": "address",
          "name": "to",
          "type": "address"
        },
        {
          "internalType": "uint256",
          "name": "tokenId",
          "type": "uint256"
        }
      ],
      "name": "safeTransferFrom",
      "outputs": [],
      "stateMutability": "nonpayable",
      "type": "function"
    },
    {
      "inputs": [
        {
          "internalType": "address",
          "name": "from",
          "type": "address"
        },
        {
          "internalType": "address",
          "name": "to",
          "type": "address"
        },
        {
          "internalType": "uint256",
          "name": "tokenId",
          "type": "uint256"
        },
        {
          "internalType": "bytes",
          "name": "data",
          "type": "bytes"
        }
      ],
      "name": "safeTransferFrom",
      "outputs": [],
      "stateMutability": "nonpayable",
      "type": "function"
    },
    {
      "inputs": [
        {
          "internalType": "address",
          "name": "operator",
          "type": "address"
        },
        {
          "internalType": "bool",
          "name": "approved",
          "type": "bool"
        }
      ],
      "name": "setApprovalForAll",
      "outputs": [],
      "stateMutability": "nonpayable",
      "type": "function"
    },
    {
      "inputs": [
        {
          "internalType": "bytes4",
          "name": "interfaceId",
          "type": "bytes4"
        }
      ],
      "name": "supportsInterface",
      "outputs": [
        {
          "internalType": "bool",
          "name": "",
          "type": "bool"
        }
      ],
      "stateMutability": "view",
      "type": "function"
    },
    {
      "inputs": [],
      "name": "symbol",
      "outputs": [
        {
          "internalType": "string",
          "name": "",
          "type": "string"
        }
      ],
      "stateMutability": "view",
      "type": "function"
    },
    {
      "inputs": [],
      "name": "tokenA",
      "outputs": [
        {
          "internalType": "contract ITokenERC20",
          "name": "",
          "type": "address"
        }
      ],
      "stateMutability": "view",
      "type": "function"
    },
    {
      "inputs": [
        {
          "internalType": "uint256",
          "name": "tokenId",
          "type": "uint256"
        }
      ],
      "name": "tokenURI",
      "outputs": [
        {
          "internalType": "string",
          "name": "",
          "type": "string"
        }
      ],
      "stateMutability": "view",
      "type": "function"
    },
    {
      "inputs": [
        {
          "internalType": "uint256",
          "name": "",
          "type": "uint256"
        }
      ],
      "name": "transactionHistory",
      "outputs": [
        {
          "internalType": "address",
          "name": "user",
          "type": "address"
        },
        {
          "internalType": "uint256",
          "name": "amount",
          "type": "uint256"
        },
        {
          "internalType": "uint256",
          "name": "time",
          "type": "uint256"
        }
      ],
      "stateMutability": "view",
      "type": "function"
    },
    {
      "inputs": [
        {
          "internalType": "address",
          "name": "from",
          "type": "address"
        },
        {
          "internalType": "address",
          "name": "to",
          "type": "address"
        },
        {
          "internalType": "uint256",
          "name": "tokenId",
          "type": "uint256"
        }
      ],
      "name": "transferFrom",
      "outputs": [],
      "stateMutability": "nonpayable",
      "type": "function"
    },
    {
      "inputs": [
        {
          "internalType": "uint256",
          "name": "_tokenId",
          "type": "uint256"
        }
      ],
      "name": "withdrawNFT",
      "outputs": [],
      "stateMutability": "nonpayable",
      "type": "function"
    },
    {
      "inputs": [],
      "name": "withdrawn",
      "outputs": [],
      "stateMutability": "nonpayable",
      "type": "function"
    }
  ],
  "bytecode": "0x608034620003b3576001600160401b0390601f90601f1990620025ed38819003848101841683019190868311848410176200039d578084926040948552833981010312620003b3576200005281620003d8565b93620000626020809301620003d8565b936200006d620003b8565b92600f84526e11195c1bdcda5d10dbdb9d1c9858dd608a1b8185015262000093620003b8565b906002825261444360f01b818301528451958487116200039d576000968754966001978881811c9116801562000392575b858210146200037e579081878493116200032b575b508490878311600114620002ca578a92620002be575b5050600019600383901b1c191690871b1787555b8251948511620002aa5785548681811c911680156200029f575b838210146200028b5790818587969594931162000232575b5081938511600114620001cd5750508592620001c1575b5050600019600383901b1c191690821b1790555b60078054600892909255600680546001600160a01b03199081166001600160a01b03968716179091556001600160a81b03199092169290931691909117600160a31b1790915560098054909116331790556040516121ff9081620003ee8239f35b0151905038806200014c565b869593929193168588528388209388905b828210620002185750508411620001fe575b505050811b01905562000160565b015160001960f88460031b161c19169055388080620001f0565b8484015186558897909501949384019390810190620001de565b9091929394508688528288208580880160051c82019285891062000281575b9188978a9297969594930160051c01915b8281106200027257505062000135565b8a815588975089910162000262565b9250819262000251565b634e487b7160e01b88526022600452602488fd5b90607f16906200011d565b634e487b7160e01b87526041600452602487fd5b015190503880620000ef565b90848a9416918b8052868c20928c5b88828210620003145750508411620002fa575b505050811b01875562000103565b015160001960f88460031b161c19169055388080620002ec565b8385015186558d97909501949384019301620002d9565b909150898052848a208780850160051c82019287861062000374575b918b91869594930160051c01915b82811062000365575050620000d9565b8c81558594508b910162000355565b9250819262000347565b634e487b7160e01b8a52602260045260248afd5b90607f1690620000c4565b634e487b7160e01b600052604160045260246000fd5b600080fd5b60408051919082016001600160401b038111838210176200039d57604052565b51906001600160a01b0382168203620003b35756fe608060408181526004908136101561001657600080fd5b600092833560e01c90816301ffc9a71461199457508063023245d7146116de57806306fdde0314611631578063081812fc14611611578063095ea7b3146114a15780630f80d243146113c45780630fc63d101461139b57806323b872dd14611371578063243e7a871461132b57806332e2cea814611302578063413d9c3a146112e557806342842e0e146112935780636352211e1461126257806370a08231146111cc5780638da5cb5b146111a357806393c494841461117e57806395d89b4114611095578063a22cb46514610fcd578063b6b55f2514610d21578063b88a802f14610b83578063b88d4fde14610afb578063bd30558e14610ad6578063c80ec52214610817578063c87b56dd14610604578063cc8076f714610494578063d82e396214610467578063e91a7ca61461022d578063e985e9c5146101d95763fc7e286d1461016357600080fd5b346101d55760203660031901126101d55760c09260ff919081906001600160a01b0361018d611a48565b168152600a60205220805493600182015492600283015491600384015493015493815196875260208701528501526060840152818116608084015260081c16151560a0820152f35b8280fd5b8382346102295780600319360112610229576020916101f6611a48565b826101ff611a5e565b9260018060a01b03809316815260058652209116600052825260ff81600020541690519015158152f35b5080fd5b50829034610229576020806003193601126101d55783359160018060a01b038060075416825184816024816331a9108f60e11b958682528a8d8301525afa9081156103f357879161044a575b5082339116036104105760038652600b8452828620610298815461200b565b9055338652600a8452828620918783018054600260ff82160160ff81116103fd5760ff169060ff19161790556007541690835190815285888201528481602481855afa9081156103f357906102f49188916103c6575b50612199565b803b156103c257858561032092898387518096819582946323b872dd60e01b8452309033908501612048565b03925af180156103b8579086916103a0575b5050600501805490600160401b82101561038d578461037d836103839360017f1c4b8380f61aea3d5d98cbadaf2e6b2e4f3d8ca8c0fce1290b26ac267158745f989796018155612116565b90612144565b519283523392a280f35b634e487b7160e01b865260418752602486fd5b6103a990611aa9565b6103b4578487610332565b8480fd5b83513d88823e3d90fd5b8580fd5b6103e69150863d88116103ec575b6103de8183611b23565b8101906120f7565b896102ee565b503d6103d4565b84513d89823e3d90fd5b634e487b7160e01b8a5260118b5260248afd5b825162461bcd60e51b81528088018590526014602482015273139bdd081d1a19481bdddb995c881bd98813919560621b6044820152606490fd5b6104619150853d87116103ec576103de8183611b23565b88610279565b8382346102295760203660031901126102295760209061048d610488611a48565b6120b2565b9051908152f35b5082346106015760209182600319360112610229579192906104b4611a48565b606060c085516104c381611aed565b8481528488820152848782015284838201528460808201528460a0820152015260018060a01b03168152600a84528281209280519061050182611aed565b84548252600193848601549587840196875260028101549183850192835260038201549060608601918252820154926005608087019360ff8616855260ff60a089019660081c16151586520194805195868c82549182815201918a528c8a20908a5b8181106105ee575050509061057f8760ff969594930388611b23565b60c0880196875280519a8c8c526101008c0198518d8d015251908b01525160608a0152516080890152511660a087015251151560c0860152519460e08086015285518092528061012086019601925b8281106105db5785870386f35b83518752958101959281019284016105ce565b82548452928e0192918c01918c01610563565b80fd5b5090346101d5576020908160031936011261081357819293813561062781611ec5565b85519261063384611b08565b82845282156107f657829190819072184f03e93ff9f4daa797ed6e38ed64bf6a1f0160401b82818110156107e9575b508790506904ee2d6d415b85acef8160201b808510156107db575b5050662386f26fc10000808410156107cc575b506305f5e100808410156107bd575b50612710808410156107af575b5050606482101561079f575b600a80921015610795575b6021908893600192816106f0858094016106e86106df82611b46565b9951998a611b23565b808952611b46565b878b019890601f1901368a3750860101905b61075f575b505050509261073e9261074a9261075b958851958361072f8895518092888089019101611a00565b84019151809386840190611a00565b01038084520182611b23565b925b51928284938452830190611a23565b0390f35b600019019083906f181899199a1a9b1b9c1cb0b131b232b360811b8282061a83530491821561079057919082610702565b610707565b91600101916106c3565b91906064600291049101916106b8565b9301929091049038806106ac565b6008919493049201923861069f565b60109194930492019238610690565b94019390920491863861067d565b8a95500492503880610662565b505050505061075b825161080981611b08565b600081529261074c565b8380fd5b5090346101d557826003193601126101d557338352602091600a835280842090600182015461012c8101809111610ac3574210610a895760018552600b8452808520610863815461200b565b905560065481516370a0823160e01b8082523082870152946001600160a01b03929091908316908781602481855afa908115610a7f578991610a52575b508554809110610a05576108cc89928992875194858094819363a9059cbb60e01b8352338a8401612097565b03925af180156109fb57908792916109ce575b50602483600654169685519788938492835230908301525afa9384156109c457869461098e575b5061091260029461215e565b82549180518381527f525f755cf37e950a7b04b93cee8178d9d0b97d9ca82540787d26d5802f6046fc873392a2600c81519661094d88611ad2565b33885280880194855288838901964288525560018952600b815282892054895252862094511660018060a01b03198554161784555160018401555191015580f35b93508484813d83116109bd575b6109a58183611b23565b810103126109b857925192610912610906565b600080fd5b503d61099b565b82513d88823e3d90fd5b6109ed90833d85116109f4575b6109e58183611b23565b810190612030565b50386108df565b503d6109db565b84513d8a823e3d90fd5b845162461bcd60e51b8152808401899052602160248201527f436f6e74726163742068617320696e73756666696369656e742062616c616e636044820152606560f81b6064820152608490fd5b90508781813d8311610a78575b610a698183611b23565b810103126109b85751386108a0565b503d610a5f565b85513d8b823e3d90fd5b6064939150519162461bcd60e51b83528201526015602482015274151bdad95b881a5cc81cdd1a5b1b081b1bd8dad959605a1b6044820152fd5b634e487b7160e01b865260118452602486fd5b83823461022957816003193601126102295760209060ff60075460a01c169051908152f35b50346101d55760803660031901126101d557610b15611a48565b610b1d611a5e565b6064359385906001600160401b03861161022957366023870112156102295785013594610b55610b4c87611b46565b95519586611b23565b85855236602487830101116102295785610b8096602460209301838801378501015260443591611c54565b80f35b5090346101d557826003193601126101d5573383526020600a815282842091825415610cec5760039060028652600b8352848620610bc1815461200b565b9055610bcd845461215e565b610bd6336120b2565b93610bf860028201958654610bea8161215e565b610bf38261215e565b61208a565b9283910155610c068261215e565b6006546001600160a01b039187918316803b156101d557848391610c4093838b518096819582946340c10f1960e01b845233908401612097565b03925af18015610ce257610cce575b506002945584518281527f106f923f993c2149d49b4255ff723acafa1f2d94393f561d3eda32ae348f7241843392a2845194610c8a86611ad2565b33865283860192835242818701908152858852600b8552818820548852600c9094528620945185546001600160a01b03191691161784555160018401555191015580f35b610cd88291611aa9565b6106015738610c4f565b87513d84823e3d90fd5b60649184519162461bcd60e51b83528201526011602482015270139bc81858dd1a5d994819195c1bdcda5d607a1b6044820152fd5b5090346101d5576020806003193601126108135781358015610f7e57338552600a8252838520858052600b8352848620610d5b815461200b565b90556001810193845415610f63575b60065486516323b872dd60e01b81526001600160a01b039391869082908616818c81610d9a8b30338c8501612048565b03925af18015610f5957610f3c575b50610df384610db988544261206a565b6301e13380610ddc8554926064610dd660ff8a8a01541686612077565b04612077565b04610dec6002860191825461208a565b905561208a565b905585518381527f2da466a7b24304f47e87fa2e1e5a81b9831ce54fec19055ce277ca2f39ba42c4853392a269d3c21bcecceda1000000831015610e89575b50600293429055845194610e4586611ad2565b33865283860192835242818701908152878052600b8552818820548852600c9094528620945185546001600160a01b03191691161784555160018401555191015580f35b6008549060018201809211610f295790879181600855836007541691823b1561081357610ece928492838b518096819582946340c10f1960e01b845233908401612097565b03925af18015610ce257610f15575b505060029360085486519081527f4cc0a9c4a99ddc700de1af2c9f916a7cbfdb71f14801ccff94061ad1ef8a8040853392a293610e32565b610f1e90611aa9565b6103c2578538610edd565b634e487b7160e01b885260119052602487fd5b610f5290863d88116109f4576109e58183611b23565b5038610da9565b88513d8b823e3d90fd5b60ff60075460a01c168183019060ff19825416179055610d6a565b50608492519162461bcd60e51b8352820152602560248201527f4465706f73697420616d6f756e74206d75737420626520677265617465722074604482015264068616e20360dc1b6064820152fd5b50346101d557806003193601126101d557610fe6611a48565b90602435918215158093036103b4576001600160a01b03169233841461105757503384526005602052808420836000526020528060002060ff1981541660ff8416179055519081527f17307eab39ab6107e8899845ad3d59bd9653f200f220920489ca2b5937696c3160203392a380f35b6020606492519162461bcd60e51b8352820152601960248201527822a9219b99189d1030b8383937bb32903a379031b0b63632b960391b6044820152fd5b5082346106015780600319360112610601578151918160019283549384811c91818616958615611174575b6020968785108114611161578899509688969785829a52918260001461113a5750506001146110fd575b50505061075b929161074c910385611b23565b91908693508083528383205b828410611122575050508201018161074c61075b6110ea565b8054848a018601528895508794909301928101611109565b60ff19168782015293151560051b8601909301935084925061074c915061075b90506110ea565b634e487b7160e01b835260228a52602483fd5b92607f16926110c0565b8382346102295781600319360112610229576020905169d3c21bcecceda10000008152f35b83823461022957816003193601126102295760095490516001600160a01b039091168152602090f35b50919034610229576020366003190112610229576001600160a01b036111f0611a48565b1690811561120d5760208480858581526003845220549051908152f35b608490602085519162461bcd60e51b8352820152602960248201527f4552433732313a2061646472657373207a65726f206973206e6f7420612076616044820152683634b21037bbb732b960b91b6064820152fd5b508234610601576020366003190112610601575061128260209235611ba8565b90516001600160a01b039091168152f35b50829034610229576112a436611a74565b83519390929060208501906001600160401b038211868310176112d057610b8096975052858452611c54565b604188634e487b7160e01b6000525260246000fd5b8382346102295781600319360112610229576020905161012c8152f35b83823461022957816003193601126102295760075490516001600160a01b039091168152602090f35b5090346101d55760203660031901126101d5576060928291358152600c6020522060018060a01b0381541691600260018301549201549181519384526020840152820152f35b833461060157610b8061138336611a74565b916113966113918433611cef565b611bf2565b611db7565b83823461022957816003193601126102295760065490516001600160a01b039091168152602090f35b5090346101d55760203660031901126101d55780359160ff83168084036103b4576009546001600160a01b0316330361145e571561141e5750506007805460ff60a01b191660a09290921b60ff60a01b1691909117905580f35b906020606492519162461bcd60e51b8352820152601a6024820152790415052206d7573742062652067726561746572207468616e20360341b6044820152fd5b815162461bcd60e51b8152602081850152601d60248201527f4f6e6c7920746865206f776e65722063616e206368616e6765204150520000006044820152606490fd5b5090346101d557816003193601126101d5576114bb611a48565b6024359290916001600160a01b03919082806114d687611ba8565b169416938085146115c4578033149081156115a3575b501561153b57848652602052842080546001600160a01b0319168317905561151383611ba8565b167f8c5be1e5ebec7d5bd14f71427d1e84f3dd0314c0f7b2291e5b200ac8c7c3b9258480a480f35b6020608492519162461bcd60e51b8352820152603d60248201527f4552433732313a20617070726f76652063616c6c6572206973206e6f7420746f60448201527f6b656e206f776e6572206f7220617070726f76656420666f7220616c6c0000006064820152fd5b9050865260056020528186203360005260205260ff826000205416386114ec565b506020608492519162461bcd60e51b8352820152602160248201527f4552433732313a20617070726f76616c20746f2063757272656e74206f776e656044820152603960f91b6064820152fd5b508234610601576020366003190112610601575061128260209235611bce565b50823461060157806003193601126106015781519181825492600184811c918186169586156116d4575b6020968785108114611161578899509688969785829a52918260001461113a5750506001146116975750505061075b929161074c910385611b23565b91908693508280528383205b8284106116bc575050508201018161074c61075b6110ea565b8054848a0186015288955087949093019281016116a3565b92607f169261165b565b50829034610229576020806003193601126101d55760075482516331a9108f60e11b8152853581870181905293916001600160a01b0391602491859082908490829087165afa9081156103f3578791611977575b50823091160361193657868652600b8452828620611750815461200b565b905561175b33612199565b338652600a8452828620878101805460011960ff82160160ff8111611924579060ff6005949392169060ff1916179055019081549283885b8181106118f7575b508410156118c55760075416803b156118c15787876117d3928b838951809681958294632142170760e11b8452339030908501612048565b03925af180156118b7576118a4575b508154600019939084810190811161189257808210611863575b50508154978815611852575050817f2aa1b4c95f3b2da9c955947fca584743ea0d457708fadf209c093061e98c4ccb959697019161183a8383612116565b909182549160031b1b1916905555519283523392a280f35b634e487b7160e01b88526031905286fd5b61188b9161187461187e9286612116565b9290549186612116565b91909260031b1c91612144565b88806117fc565b634e487b7160e01b895260118a528289fd5b6118b090979197611aa9565b95886117e2565b85513d8a823e3d90fd5b8780fd5b845162461bcd60e51b8152808a01879052600d818401526c139195081b9bdd08199bdd5b99609a1b6044820152606490fd5b886119028287612116565b90549060031b1c1461191c576119179061200b565b611793565b94508a61179b565b634e487b7160e01b8a5260118b52848afd5b86601e6064928686519362461bcd60e51b85528401528201527f436f6e747261637420646f6573206e6f74206f776e2074686973204e465400006044820152fd5b61198e9150853d87116103ec576103de8183611b23565b88611732565b849084346101d55760203660031901126101d5573563ffffffff60e01b81168091036101d557602092506380ac58cd60e01b81149081156119ef575b81156119de575b5015158152f35b6301ffc9a760e01b149050836119d7565b635b5e139f60e01b811491506119d0565b60005b838110611a135750506000910152565b8181015183820152602001611a03565b90602091611a3c81518092818552858086019101611a00565b601f01601f1916010190565b600435906001600160a01b03821682036109b857565b602435906001600160a01b03821682036109b857565b60609060031901126109b8576001600160a01b039060043582811681036109b8579160243590811681036109b8579060443590565b6001600160401b038111611abc57604052565b634e487b7160e01b600052604160045260246000fd5b606081019081106001600160401b03821117611abc57604052565b60e081019081106001600160401b03821117611abc57604052565b602081019081106001600160401b03821117611abc57604052565b601f909101601f19168101906001600160401b03821190821017611abc57604052565b6001600160401b038111611abc57601f01601f191660200190565b15611b6857565b60405162461bcd60e51b8152602060048201526018602482015277115490cdcc8c4e881a5b9d985b1a59081d1bdad95b88125160421b6044820152606490fd5b6000908152600260205260409020546001600160a01b0316611bcb811515611b61565b90565b611bd781611ec5565b6000908152600460205260409020546001600160a01b031690565b15611bf957565b60405162461bcd60e51b815260206004820152602d60248201527f4552433732313a2063616c6c6572206973206e6f7420746f6b656e206f776e6560448201526c1c881bdc88185c1c1c9bdd9959609a1b6064820152608490fd5b90611c78939291611c686113918433611cef565b611c73838383611db7565b611eea565b15611c7f57565b60405162461bcd60e51b815280611c9860048201611c9c565b0390fd5b60809060208152603260208201527f4552433732313a207472616e7366657220746f206e6f6e20455243373231526560408201527131b2b4bb32b91034b6b83632b6b2b73a32b960711b60608201520190565b906001600160a01b038080611d0384611ba8565b16931691838314938415611d36575b508315611d20575b50505090565b611d2c91929350611bce565b1614388080611d1a565b909350600052600560205260406000208260005260205260ff604060002054169238611d12565b15611d6457565b60405162461bcd60e51b815260206004820152602560248201527f4552433732313a207472616e736665722066726f6d20696e636f72726563742060448201526437bbb732b960d91b6064820152608490fd5b90611ddf91611dc584611ba8565b6001600160a01b0393918416928492909183168414611d5d565b16918215611e745781611dfc91611df586611ba8565b1614611d5d565b7fddf252ad1be2c89b69c2b068fc378daa952ba7f163c4a11628f55a4df523b3ef600084815260046020526040812060018060a01b03199081815416905583825260036020526040822060001981540190558482526040822060018154019055858252600260205284604083209182541617905580a4565b60405162461bcd60e51b8152602060048201526024808201527f4552433732313a207472616e7366657220746f20746865207a65726f206164646044820152637265737360e01b6064820152608490fd5b600090815260026020526040902054611ee8906001600160a01b03161515611b61565b565b9293600093909291803b1561200057948491611f449660405180948193630a85bd0160e11b9788845233600485015260018060a01b0380921660248501526044840152608060648401528260209b8c976084830190611a23565b0393165af1849181611fc0575b50611faf575050503d600014611fa7573d611f6b81611b46565b90611f796040519283611b23565b81528091833d92013e5b80519182611fa45760405162461bcd60e51b815280611c9860048201611c9c565b01fd5b506060611f83565b6001600160e01b0319161492509050565b9091508581813d8311611ff9575b611fd88183611b23565b810103126103b457516001600160e01b0319811681036103b4579038611f51565b503d611fce565b505050915050600190565b600019811461201a5760010190565b634e487b7160e01b600052601160045260246000fd5b908160209103126109b8575180151581036109b85790565b6001600160a01b03918216815291166020820152604081019190915260600190565b9190820391821161201a57565b8181029291811591840414171561201a57565b9190820180921161201a57565b6001600160a01b039091168152602081019190915260400190565b60018060a01b0316600052600a6020526301e133806120f360406000206064610dd66120e260018401544261206a565b9260ff600482549201541690612077565b0490565b908160209103126109b857516001600160a01b03811681036109b85790565b805482101561212e5760005260206000200190600090565b634e487b7160e01b600052603260045260246000fd5b919082549060031b600019811b9283911b16911916179055565b60008091604051602081019163f82c50f160e01b835260248201526024815261218681611ad2565b51906a636f6e736f6c652e6c6f675afa50565b60008091604051602081019163161765e160e11b835260018060a01b031660248201526024815261218681611ad256fea2646970667358221220b91ae701f488e8d18e6a41663f0451ad5983b2f4ad06297c7feb6fcaa87c1c4d64736f6c63430008110033",
  "linkReferences": {},
  "deployedLinkReferences": {}
}