{
  "_format": "hh-sol-artifact-1",
  "contractName": "DepositContract",
  "sourceName": "contracts/DepositContract.sol",
  "abi": [
    {
      "inputs": [
        {
          "internalType": "address",
          "name": "_tokenA",
          "type": "address"
        },
        {
          "internalType": "address",
          "name": "_nftB",
          "type": "address"
        }
      ],
      "stateMutability": "nonpayable",
      "type": "constructor"
    },
    {
      "anonymous": false,
      "inputs": [
        {
          "indexed": true,
          "internalType": "address",
          "name": "owner",
          "type": "address"
        },
        {
          "indexed": true,
          "internalType": "address",
          "name": "approved",
          "type": "address"
        },
        {
          "indexed": true,
          "internalType": "uint256",
          "name": "tokenId",
          "type": "uint256"
        }
      ],
      "name": "Approval",
      "type": "event"
    },
    {
      "anonymous": false,
      "inputs": [
        {
          "indexed": true,
          "internalType": "address",
          "name": "owner",
          "type": "address"
        },
        {
          "indexed": true,
          "internalType": "address",
          "name": "operator",
          "type": "address"
        },
        {
          "indexed": false,
          "internalType": "bool",
          "name": "approved",
          "type": "bool"
        }
      ],
      "name": "ApprovalForAll",
      "type": "event"
    },
    {
      "anonymous": false,
      "inputs": [
        {
          "indexed": true,
          "internalType": "address",
          "name": "user",
          "type": "address"
        },
        {
          "indexed": false,
          "internalType": "uint256",
          "name": "amount",
          "type": "uint256"
        },
        {
          "indexed": false,
          "internalType": "uint256",
          "name": "time",
          "type": "uint256"
        }
      ],
      "name": "Deposited",
      "type": "event"
    },
    {
      "anonymous": false,
      "inputs": [
        {
          "indexed": true,
          "internalType": "address",
          "name": "user",
          "type": "address"
        },
        {
          "indexed": false,
          "internalType": "uint256",
          "name": "tokenId",
          "type": "uint256"
        }
      ],
      "name": "NFTMinted",
      "type": "event"
    },
    {
      "anonymous": false,
      "inputs": [
        {
          "indexed": true,
          "internalType": "address",
          "name": "user",
          "type": "address"
        },
        {
          "indexed": false,
          "internalType": "uint256",
          "name": "reward",
          "type": "uint256"
        },
        {
          "indexed": false,
          "internalType": "uint256",
          "name": "time",
          "type": "uint256"
        }
      ],
      "name": "RewardClaimed",
      "type": "event"
    },
    {
      "anonymous": false,
      "inputs": [
        {
          "indexed": true,
          "internalType": "address",
          "name": "from",
          "type": "address"
        },
        {
          "indexed": true,
          "internalType": "address",
          "name": "to",
          "type": "address"
        },
        {
          "indexed": true,
          "internalType": "uint256",
          "name": "tokenId",
          "type": "uint256"
        }
      ],
      "name": "Transfer",
      "type": "event"
    },
    {
      "anonymous": false,
      "inputs": [
        {
          "indexed": true,
          "internalType": "address",
          "name": "user",
          "type": "address"
        },
        {
          "indexed": false,
          "internalType": "uint256",
          "name": "amount",
          "type": "uint256"
        },
        {
          "indexed": false,
          "internalType": "uint256",
          "name": "time",
          "type": "uint256"
        }
      ],
      "name": "Withdrawn",
      "type": "event"
    },
    {
      "inputs": [],
      "name": "APR",
      "outputs": [
        {
          "internalType": "uint8",
          "name": "",
          "type": "uint8"
        }
      ],
      "stateMutability": "view",
      "type": "function"
    },
    {
      "inputs": [],
      "name": "LOCK_TIME",
      "outputs": [
        {
          "internalType": "uint256",
          "name": "",
          "type": "uint256"
        }
      ],
      "stateMutability": "view",
      "type": "function"
    },
    {
      "inputs": [],
      "name": "NFT_THRESHOLD",
      "outputs": [
        {
          "internalType": "uint256",
          "name": "",
          "type": "uint256"
        }
      ],
      "stateMutability": "view",
      "type": "function"
    },
    {
      "inputs": [
        {
          "internalType": "address",
          "name": "to",
          "type": "address"
        },
        {
          "internalType": "uint256",
          "name": "tokenId",
          "type": "uint256"
        }
      ],
      "name": "approve",
      "outputs": [],
      "stateMutability": "nonpayable",
      "type": "function"
    },
    {
      "inputs": [
        {
          "internalType": "address",
          "name": "owner",
          "type": "address"
        }
      ],
      "name": "balanceOf",
      "outputs": [
        {
          "internalType": "uint256",
          "name": "",
          "type": "uint256"
        }
      ],
      "stateMutability": "view",
      "type": "function"
    },
    {
      "inputs": [
        {
          "internalType": "address",
          "name": "_user",
          "type": "address"
        }
      ],
      "name": "calculateReward",
      "outputs": [
        {
          "internalType": "uint256",
          "name": "",
          "type": "uint256"
        }
      ],
      "stateMutability": "view",
      "type": "function"
    },
    {
      "inputs": [
        {
          "internalType": "uint8",
          "name": "_APR",
          "type": "uint8"
        }
      ],
      "name": "changeAPR",
      "outputs": [],
      "stateMutability": "nonpayable",
      "type": "function"
    },
    {
      "inputs": [],
      "name": "claimReward",
      "outputs": [],
      "stateMutability": "nonpayable",
      "type": "function"
    },
    {
      "inputs": [
        {
          "internalType": "uint256",
          "name": "_amount",
          "type": "uint256"
        }
      ],
      "name": "deposit",
      "outputs": [],
      "stateMutability": "nonpayable",
      "type": "function"
    },
    {
      "inputs": [
        {
          "internalType": "uint256",
          "name": "_tokenId",
          "type": "uint256"
        }
      ],
      "name": "depositNFT",
      "outputs": [],
      "stateMutability": "nonpayable",
      "type": "function"
    },
    {
      "inputs": [
        {
          "internalType": "address",
          "name": "",
          "type": "address"
        }
      ],
      "name": "deposits",
      "outputs": [
        {
          "internalType": "uint256",
          "name": "amount",
          "type": "uint256"
        },
        {
          "internalType": "uint256",
          "name": "depositTime",
          "type": "uint256"
        },
        {
          "internalType": "uint8",
          "name": "APR",
          "type": "uint8"
        },
        {
          "internalType": "bool",
          "name": "claimedNFT",
          "type": "bool"
        }
      ],
      "stateMutability": "view",
      "type": "function"
    },
    {
      "inputs": [
        {
          "internalType": "uint256",
          "name": "tokenId",
          "type": "uint256"
        }
      ],
      "name": "getApproved",
      "outputs": [
        {
          "internalType": "address",
          "name": "",
          "type": "address"
        }
      ],
      "stateMutability": "view",
      "type": "function"
    },
    {
      "inputs": [
        {
          "internalType": "address",
          "name": "owner",
          "type": "address"
        },
        {
          "internalType": "address",
          "name": "operator",
          "type": "address"
        }
      ],
      "name": "isApprovedForAll",
      "outputs": [
        {
          "internalType": "bool",
          "name": "",
          "type": "bool"
        }
      ],
      "stateMutability": "view",
      "type": "function"
    },
    {
      "inputs": [],
      "name": "name",
      "outputs": [
        {
          "internalType": "string",
          "name": "",
          "type": "string"
        }
      ],
      "stateMutability": "view",
      "type": "function"
    },
    {
      "inputs": [],
      "name": "nftB",
      "outputs": [
        {
          "internalType": "contract ITokenERC721",
          "name": "",
          "type": "address"
        }
      ],
      "stateMutability": "view",
      "type": "function"
    },
    {
      "inputs": [],
      "name": "owner",
      "outputs": [
        {
          "internalType": "address",
          "name": "",
          "type": "address"
        }
      ],
      "stateMutability": "view",
      "type": "function"
    },
    {
      "inputs": [
        {
          "internalType": "uint256",
          "name": "tokenId",
          "type": "uint256"
        }
      ],
      "name": "ownerOf",
      "outputs": [
        {
          "internalType": "address",
          "name": "",
          "type": "address"
        }
      ],
      "stateMutability": "view",
      "type": "function"
    },
    {
      "inputs": [
        {
          "internalType": "address",
          "name": "from",
          "type": "address"
        },
        {
          "internalType": "address",
          "name": "to",
          "type": "address"
        },
        {
          "internalType": "uint256",
          "name": "tokenId",
          "type": "uint256"
        }
      ],
      "name": "safeTransferFrom",
      "outputs": [],
      "stateMutability": "nonpayable",
      "type": "function"
    },
    {
      "inputs": [
        {
          "internalType": "address",
          "name": "from",
          "type": "address"
        },
        {
          "internalType": "address",
          "name": "to",
          "type": "address"
        },
        {
          "internalType": "uint256",
          "name": "tokenId",
          "type": "uint256"
        },
        {
          "internalType": "bytes",
          "name": "data",
          "type": "bytes"
        }
      ],
      "name": "safeTransferFrom",
      "outputs": [],
      "stateMutability": "nonpayable",
      "type": "function"
    },
    {
      "inputs": [
        {
          "internalType": "address",
          "name": "operator",
          "type": "address"
        },
        {
          "internalType": "bool",
          "name": "approved",
          "type": "bool"
        }
      ],
      "name": "setApprovalForAll",
      "outputs": [],
      "stateMutability": "nonpayable",
      "type": "function"
    },
    {
      "inputs": [
        {
          "internalType": "bytes4",
          "name": "interfaceId",
          "type": "bytes4"
        }
      ],
      "name": "supportsInterface",
      "outputs": [
        {
          "internalType": "bool",
          "name": "",
          "type": "bool"
        }
      ],
      "stateMutability": "view",
      "type": "function"
    },
    {
      "inputs": [],
      "name": "symbol",
      "outputs": [
        {
          "internalType": "string",
          "name": "",
          "type": "string"
        }
      ],
      "stateMutability": "view",
      "type": "function"
    },
    {
      "inputs": [],
      "name": "tokenA",
      "outputs": [
        {
          "internalType": "contract ITokenERC20",
          "name": "",
          "type": "address"
        }
      ],
      "stateMutability": "view",
      "type": "function"
    },
    {
      "inputs": [
        {
          "internalType": "uint256",
          "name": "tokenId",
          "type": "uint256"
        }
      ],
      "name": "tokenURI",
      "outputs": [
        {
          "internalType": "string",
          "name": "",
          "type": "string"
        }
      ],
      "stateMutability": "view",
      "type": "function"
    },
    {
      "inputs": [
        {
          "internalType": "uint256",
          "name": "",
          "type": "uint256"
        }
      ],
      "name": "transactionHistory",
      "outputs": [
        {
          "internalType": "address",
          "name": "user",
          "type": "address"
        },
        {
          "internalType": "uint256",
          "name": "amount",
          "type": "uint256"
        },
        {
          "internalType": "uint256",
          "name": "time",
          "type": "uint256"
        }
      ],
      "stateMutability": "view",
      "type": "function"
    },
    {
      "inputs": [
        {
          "internalType": "address",
          "name": "from",
          "type": "address"
        },
        {
          "internalType": "address",
          "name": "to",
          "type": "address"
        },
        {
          "internalType": "uint256",
          "name": "tokenId",
          "type": "uint256"
        }
      ],
      "name": "transferFrom",
      "outputs": [],
      "stateMutability": "nonpayable",
      "type": "function"
    },
    {
      "inputs": [],
      "name": "withdraw",
      "outputs": [],
      "stateMutability": "nonpayable",
      "type": "function"
    },
    {
      "inputs": [
        {
          "internalType": "uint256",
          "name": "_tokenId",
          "type": "uint256"
        }
      ],
      "name": "withdrawNFT",
      "outputs": [],
      "stateMutability": "nonpayable",
      "type": "function"
    }
  ],
  "bytecode": "0x608034620003b3576001600160401b0390601f90601f19906200238838819003848101841683019190868311848410176200039d578084926040948552833981010312620003b3576200005281620003d8565b93620000626020809301620003d8565b936200006d620003b8565b92600f84526e11195c1bdcda5d10dbdb9d1c9858dd608a1b8185015262000093620003b8565b906002825261444360f01b818301528451958487116200039d576000968754966001978881811c9116801562000392575b858210146200037e579081878493116200032b575b508490878311600114620002ca578a92620002be575b5050600019600383901b1c191690871b1787555b8251948511620002aa5785548681811c911680156200029f575b838210146200028b5790818587969594931162000232575b5081938511600114620001cd5750508592620001c1575b5050600019600383901b1c191690821b1790555b60078054600892909255600680546001600160a01b03199081166001600160a01b03968716179091556001600160a81b03199092169290931691909117600160a31b179091556009805490911633179055604051611f9a9081620003ee8239f35b0151905038806200014c565b869593929193168588528388209388905b828210620002185750508411620001fe575b505050811b01905562000160565b015160001960f88460031b161c19169055388080620001f0565b8484015186558897909501949384019390810190620001de565b9091929394508688528288208580880160051c82019285891062000281575b9188978a9297969594930160051c01915b8281106200027257505062000135565b8a815588975089910162000262565b9250819262000251565b634e487b7160e01b88526022600452602488fd5b90607f16906200011d565b634e487b7160e01b87526041600452602487fd5b015190503880620000ef565b90848a9416918b8052868c20928c5b88828210620003145750508411620002fa575b505050811b01875562000103565b015160001960f88460031b161c19169055388080620002ec565b8385015186558d97909501949384019301620002d9565b909150898052848a208780850160051c82019287861062000374575b918b91869594930160051c01915b82811062000365575050620000d9565b8c81558594508b910162000355565b9250819262000347565b634e487b7160e01b8a52602260045260248afd5b90607f1690620000c4565b634e487b7160e01b600052604160045260246000fd5b600080fd5b60408051919082016001600160401b038111838210176200039d57604052565b51906001600160a01b0382168203620003b35756fe608060408181526004918236101561001657600080fd5b600092833560e01c91826301ffc9a71461174757508163023245d7146115e657816306fdde0314611539578163081812fc14611519578163095ea7b3146113a95781630f80d243146112cc5781630fc63d10146112a357816323b872dd14611279578163243e7a871461123557816332e2cea81461120c5781633ccfd60b14610ed3578163413d9c3a14610eb657816342842e0e14610e655781636352211e14610e3457816370a0823114610d9e5781638da5cb5b14610d7557816393c4948414610d5057816395d89b4114610c67578163a22cb46514610b9d578163b6b55f25146108da578163b88a802f146106ca578163b88d4fde14610640578163bd30558e1461061b578163c87b56dd14610408578163d82e3962146103db578163e91a7ca61461020a57508063e985e9c5146101bb5763fc7e286d1461015957600080fd5b346101b75760203660031901126101b75760809160ff9082906001600160a01b036101826117fa565b168152600a602052208054926002600183015492015491815194855260208501528282169084015260081c1615156060820152f35b5080fd5b50346101b757806003193601126101b7576020916101d76117fa565b826101e0611810565b9260018060a01b03809316815260058652209116600052825260ff81600020541690519015158152f35b8383346101b757602090816003193601126103d75783359360018060a01b0394856007541693835181816024816331a9108f60e11b998a825287898301525afa9081156103645787916103ba575b5087339116036103815760038652600b81528386206102778154611dc0565b9055338652600a815260028487200196875497600260ff8a16019860ff8a1161036e5760ff899a169060ff19161790556007541694845190815282848201528181602481895afa91821561036457906102d992918892610337575b5050611f34565b833b15610333576103049385928385518097819582946323b872dd60e01b8452309033908501611dfd565b03925af190811561032a57506103175750f35b61032090611879565b6103275780f35b80fd5b513d84823e3d90fd5b8480fd5b6103569250803d1061035d575b61034e81836118d8565b810190611eda565b88806102d2565b503d610344565b85513d89823e3d90fd5b634e487b7160e01b895260118652602489fd5b9050606492519162461bcd60e51b83528201526014602482015273139bdd081d1a19481bdddb995c881bd98813919560621b6044820152fd5b6103d19150823d841161035d5761034e81836118d8565b88610258565b8280fd5b5050346101b75760203660031901126101b7576020906104016103fc6117fa565b611e8d565b9051908152f35b9050346103d7576020908160031936011261061757819293813561042b81611c7a565b855192610437846118bd565b82845282156105fa57829190819072184f03e93ff9f4daa797ed6e38ed64bf6a1f0160401b82818110156105ed575b508790506904ee2d6d415b85acef8160201b808510156105df575b5050662386f26fc10000808410156105d0575b506305f5e100808410156105c1575b50612710808410156105b3575b505060648210156105a3575b600a80921015610599575b6021908893600192816104f4858094016104ec6104e3826118fb565b9951998a6118d8565b8089526118fb565b878b019890601f1901368a3750860101905b610563575b50505050926105429261054e9261055f958851958361053388955180928880890191016117b2565b840191518093868401906117b2565b010380845201826118d8565b925b519282849384528301906117d5565b0390f35b600019019083906f181899199a1a9b1b9c1cb0b131b232b360811b8282061a83530491821561059457919082610506565b61050b565b91600101916104c7565b91906064600291049101916104bc565b9301929091049038806104b0565b600891949304920192386104a3565b60109194930492019238610494565b940193909204918638610481565b8a95500492503880610466565b505050505061055f825161060d816118bd565b6000815292610550565b8380fd5b5050346101b757816003193601126101b75760209060ff60075460a01c169051908152f35b919050346103d75760803660031901126103d75761065c6117fa565b610664611810565b6064359385906001600160401b0386116101b757366023870112156101b7578501359461069c610693876118fb565b955195866118d8565b85855236602487830101116101b757856106c796602460209301838801378501015260443591611a09565b80f35b9050346103d757826003193601126103d7573383526020600a81526106f3838520541515611e1f565b600291828552600b825283852061070a8154611dc0565b905561071533611e8d565b80156108a15761074a838260018060a01b03948560065416908a8a5180968195829463a9059cbb60e01b845233908401611e5f565b03925af1801561089757600096949193610856938897956108489361086a575b50865181815242858201527ff01da32686223933d8a18a391060918c7f11a3648639edd87ae013e2e2731743883392a2858a8851926107a8846118a2565b338452868401908152848a80860193428552858152600b8a52818120548152600c8a522094511660018060a01b031985541617845551600184015551910155848952600b8352858920548952600c8352858920541694848952600b8352808920548952600c83526001818a20015494808a52600b8452818a20548a52600c8452818a2001549051948593840196635b4de57b60e11b88526024850161185b565b03601f1981018352826118d8565b51906a636f6e736f6c652e6c6f675afa5080f35b61088990853d8711610890575b61088181836118d8565b810190611de5565b503861076a565b503d610877565b86513d89823e3d90fd5b5060649184519162461bcd60e51b835282015260146024820152734e6f207265776172647320617661696c61626c6560601b6044820152fd5b9050346103d7576020806003193601126106175781358015610b4e57338552600a825283852092858052600b83528486206109158154611dc0565b905560065485516323b872dd60e01b81526001600160a01b039291859082908516818b816109478a3033848c01611dfd565b03925af18015610b4457610b27575b508454838101809111610b12578555855183815242858201527f73a19dd210f1a7f902193214c0ee91dd35ee5b4d920cba8d519eca65a7b488ca873392a269d3c21bcecceda100000083101580610b00575b610a2f575b5083600160029501805415610a0f575b50508451946109cb866118a2565b33865283860192835242818701908152878052600b8552818820548852600c9094528620945185546001600160a01b03191691161784555160018401555191015580f35b4290558460ff60075460a01c1691019060ff1982541617905538806109bd565b6008549060018201809211610aed5790879181600855836007541691823b1561061757610a74928492838b518096819582946340c10f1960e01b845233908401611e5f565b03925af18015610ae357610acb575b505060029360085486519081527f4cc0a9c4a99ddc700de1af2c9f916a7cbfdb71f14801ccff94061ad1ef8a8040853392a2808501805461ff001916610100179055936109ad565b610ad490611879565b610adf578538610a83565b8580fd5b87513d84823e3d90fd5b634e487b7160e01b885260119052602487fd5b5060ff600286015460081c16156109a8565b601182634e487b7160e01b6000525260246000fd5b610b3d90853d87116108905761088181836118d8565b5038610956565b87513d8a823e3d90fd5b50608492519162461bcd60e51b8352820152602560248201527f4465706f73697420616d6f756e74206d75737420626520677265617465722074604482015264068616e20360dc1b6064820152fd5b919050346103d757806003193601126103d757610bb86117fa565b9060243591821515809303610333576001600160a01b031692338414610c2957503384526005602052808420836000526020528060002060ff1981541660ff8416179055519081527f17307eab39ab6107e8899845ad3d59bd9653f200f220920489ca2b5937696c3160203392a380f35b6020606492519162461bcd60e51b8352820152601960248201527822a9219b99189d1030b8383937bb32903a379031b0b63632b960391b6044820152fd5b8284346103275780600319360112610327578151918160019283549384811c91818616958615610d46575b6020968785108114610d33578899509688969785829a529182600014610d0c575050600114610ccf575b50505061055f92916105509103856118d8565b91908693508083528383205b828410610cf4575050508201018161055061055f610cbc565b8054848a018601528895508794909301928101610cdb565b60ff19168782015293151560051b86019093019350849250610550915061055f9050610cbc565b634e487b7160e01b835260228a52602483fd5b92607f1692610c92565b5050346101b757816003193601126101b7576020905169d3c21bcecceda10000008152f35b5050346101b757816003193601126101b75760095490516001600160a01b039091168152602090f35b839150346101b75760203660031901126101b7576001600160a01b03610dc26117fa565b16908115610ddf5760208480858581526003845220549051908152f35b608490602085519162461bcd60e51b8352820152602960248201527f4552433732313a2061646472657373207a65726f206973206e6f7420612076616044820152683634b21037bbb732b960b91b6064820152fd5b8284346103275760203660031901126103275750610e546020923561195d565b90516001600160a01b039091168152f35b8383346101b757610e7536611826565b83519390929060208501906001600160401b03821186831017610ea1576106c796975052858452611a09565b604188634e487b7160e01b6000525260246000fd5b5050346101b757816003193601126101b7576020905161012c8152f35b9050346103d757826003193601126103d757338352602091600a835280842090610eff82541515611e1f565b600182015461012c81018091116111f95742106111bf5760018552600b8452808520610f2b8154611dc0565b9055610f3633611e8d565b610f3f81611ef9565b60065482516370a0823160e01b80825230828801526001600160a01b0396909390929091908716908881602481855afa9081156111b5578a91611188575b50610f8781611ef9565b86548091610f9482611ef9565b1061113b5788610fbf8b969594938793895194858094819363a9059cbb60e01b8352338b8401611e5f565b03925af180156111145761111e575b50866006541692855190815230838201528881602481875afa9081156111145785916110db575b50610fff90611ef9565b823b15610617576110289284928387518096819582946340c10f1960e01b845233908401611e5f565b03925af180156110d1576110bd575b5050600292825491805183815242878201527f92ccf450a286a957af52509bc1c9939d1a6a481783e142e41e2499f0bb66ebc6823392a2600c81519661107c886118a2565b33885280880194855288838901964288525560018952600b815282892054895252862094511660018060a01b03198554161784555160018401555191015580f35b6110c690611879565b610333578438611037565b83513d84823e3d90fd5b809550898092503d831161110d575b6110f481836118d8565b8101031261110857610fff89945190610ff5565b600080fd5b503d6110ea565b86513d87823e3d90fd5b61113490893d8b116108905761088181836118d8565b5038610fce565b855162461bcd60e51b81528085018a9052602160248201527f436f6e74726163742068617320696e73756666696369656e742062616c616e636044820152606560f81b6064820152608490fd5b90508881813d83116111ae575b61119f81836118d8565b81010312611108575138610f7d565b503d611195565b86513d8c823e3d90fd5b6064939150519162461bcd60e51b83528201526015602482015274151bdad95b881a5cc81cdd1a5b1b081b1bd8dad959605a1b6044820152fd5b634e487b7160e01b865260118452602486fd5b5050346101b757816003193601126101b75760075490516001600160a01b039091168152602090f35b9050346103d75760203660031901126103d757358252600c6020529081902080546001820154600290920154925192839261055f926001600160a01b03168461185b565b8334610327576106c761128b36611826565b9161129e6112998433611aa4565b6119a7565b611b6c565b5050346101b757816003193601126101b75760065490516001600160a01b039091168152602090f35b9050346103d75760203660031901126103d75780359160ff8316808403610333576009546001600160a01b0316330361136657156113265750506007805460ff60a01b191660a09290921b60ff60a01b1691909117905580f35b906020606492519162461bcd60e51b8352820152601a6024820152790415052206d7573742062652067726561746572207468616e20360341b6044820152fd5b815162461bcd60e51b8152602081850152601d60248201527f4f6e6c7920746865206f776e65722063616e206368616e6765204150520000006044820152606490fd5b9050346103d757816003193601126103d7576113c36117fa565b6024359290916001600160a01b03919082806113de8761195d565b169416938085146114cc578033149081156114ab575b501561144357848652602052842080546001600160a01b0319168317905561141b8361195d565b167f8c5be1e5ebec7d5bd14f71427d1e84f3dd0314c0f7b2291e5b200ac8c7c3b9258480a480f35b6020608492519162461bcd60e51b8352820152603d60248201527f4552433732313a20617070726f76652063616c6c6572206973206e6f7420746f60448201527f6b656e206f776e6572206f7220617070726f76656420666f7220616c6c0000006064820152fd5b9050865260056020528186203360005260205260ff826000205416386113f4565b506020608492519162461bcd60e51b8352820152602160248201527f4552433732313a20617070726f76616c20746f2063757272656e74206f776e656044820152603960f91b6064820152fd5b8284346103275760203660031901126103275750610e5460209235611983565b82843461032757806003193601126103275781519181825492600184811c918186169586156115dc575b6020968785108114610d33578899509688969785829a529182600014610d0c57505060011461159f5750505061055f92916105509103856118d8565b91908693508280528383205b8284106115c4575050508201018161055061055f610cbc565b8054848a0186015288955087949093019281016115ab565b92607f1692611563565b919050346103d7576020806003193601126106175782359060018060a01b039060248183600754168651928380926331a9108f60e11b8252888b8301525afa90811561036457879161172a575b5082309116036116e857600a90858752600b81528487206116548154611dc0565b905561165f33611f34565b33875252600283862001805460011960ff82160160ff81116116d55760ff1660ff199190911617905560075485929116803b156103d7576116b8948385518097819582946323b872dd60e01b8452339030908501611dfd565b03925af190811561032a57506116cc575080f35b6106c790611879565b634e487b7160e01b885260118752602488fd5b8460649185519162461bcd60e51b8352820152601e60248201527f436f6e747261637420646f6573206e6f74206f776e2074686973204e465400006044820152fd5b6117419150823d841161035d5761034e81836118d8565b38611633565b8491346103d75760203660031901126103d7573563ffffffff60e01b81168091036103d757602092506380ac58cd60e01b81149081156117a1575b8115611790575b5015158152f35b6301ffc9a760e01b14905083611789565b635b5e139f60e01b81149150611782565b60005b8381106117c55750506000910152565b81810151838201526020016117b5565b906020916117ee815180928185528580860191016117b2565b601f01601f1916010190565b600435906001600160a01b038216820361110857565b602435906001600160a01b038216820361110857565b6060906003190112611108576001600160a01b0390600435828116810361110857916024359081168103611108579060443590565b604091949392606082019560018060a01b0316825260208201520152565b6001600160401b03811161188c57604052565b634e487b7160e01b600052604160045260246000fd5b606081019081106001600160401b0382111761188c57604052565b602081019081106001600160401b0382111761188c57604052565b601f909101601f19168101906001600160401b0382119082101761188c57604052565b6001600160401b03811161188c57601f01601f191660200190565b1561191d57565b60405162461bcd60e51b8152602060048201526018602482015277115490cdcc8c4e881a5b9d985b1a59081d1bdad95b88125160421b6044820152606490fd5b6000908152600260205260409020546001600160a01b0316611980811515611916565b90565b61198c81611c7a565b6000908152600460205260409020546001600160a01b031690565b156119ae57565b60405162461bcd60e51b815260206004820152602d60248201527f4552433732313a2063616c6c6572206973206e6f7420746f6b656e206f776e6560448201526c1c881bdc88185c1c1c9bdd9959609a1b6064820152608490fd5b90611a2d939291611a1d6112998433611aa4565b611a28838383611b6c565b611c9f565b15611a3457565b60405162461bcd60e51b815280611a4d60048201611a51565b0390fd5b60809060208152603260208201527f4552433732313a207472616e7366657220746f206e6f6e20455243373231526560408201527131b2b4bb32b91034b6b83632b6b2b73a32b960711b60608201520190565b906001600160a01b038080611ab88461195d565b16931691838314938415611aeb575b508315611ad5575b50505090565b611ae191929350611983565b1614388080611acf565b909350600052600560205260406000208260005260205260ff604060002054169238611ac7565b15611b1957565b60405162461bcd60e51b815260206004820152602560248201527f4552433732313a207472616e736665722066726f6d20696e636f72726563742060448201526437bbb732b960d91b6064820152608490fd5b90611b9491611b7a8461195d565b6001600160a01b0393918416928492909183168414611b12565b16918215611c295781611bb191611baa8661195d565b1614611b12565b7fddf252ad1be2c89b69c2b068fc378daa952ba7f163c4a11628f55a4df523b3ef600084815260046020526040812060018060a01b03199081815416905583825260036020526040822060001981540190558482526040822060018154019055858252600260205284604083209182541617905580a4565b60405162461bcd60e51b8152602060048201526024808201527f4552433732313a207472616e7366657220746f20746865207a65726f206164646044820152637265737360e01b6064820152608490fd5b600090815260026020526040902054611c9d906001600160a01b03161515611916565b565b9293600093909291803b15611db557948491611cf99660405180948193630a85bd0160e11b9788845233600485015260018060a01b0380921660248501526044840152608060648401528260209b8c9760848301906117d5565b0393165af1849181611d75575b50611d64575050503d600014611d5c573d611d20816118fb565b90611d2e60405192836118d8565b81528091833d92013e5b80519182611d595760405162461bcd60e51b815280611a4d60048201611a51565b01fd5b506060611d38565b6001600160e01b0319161492509050565b9091508581813d8311611dae575b611d8d81836118d8565b8101031261033357516001600160e01b031981168103610333579038611d06565b503d611d83565b505050915050600190565b6000198114611dcf5760010190565b634e487b7160e01b600052601160045260246000fd5b90816020910312611108575180151581036111085790565b6001600160a01b03918216815291166020820152604081019190915260600190565b15611e2657565b60405162461bcd60e51b8152602060048201526011602482015270139bc81858dd1a5d994819195c1bdcda5d607a1b6044820152606490fd5b6001600160a01b039091168152602081019190915260400190565b81810292918115918404141715611dcf57565b60018060a01b0316600052600a60205260406000206001810154420390428211611dcf576301e13380916064611ed08360ff6002611ed696549201541690611e7a565b04611e7a565b0490565b9081602091031261110857516001600160a01b03811681036111085790565b60008091604051602081019163f82c50f160e01b8352602482015260248152611f21816118a2565b51906a636f6e736f6c652e6c6f675afa50565b60008091604051602081019163161765e160e11b835260018060a01b0316602482015260248152611f21816118a256fea2646970667358221220d567a25dc4112d31c6d61e24852663e67003f3cb8770e7760ca8f2a84e4b850e64736f6c63430008110033",
  "linkReferences": {},
  "deployedLinkReferences": {}
}