{
  "_format": "hh-sol-artifact-1",
  "contractName": "TokenERC721",
  "sourceName": "contracts/TokenERC721.sol",
  "abi": [
    {
      "inputs": [
        {
          "internalType": "string",
          "name": "name",
          "type": "string"
        },
        {
          "internalType": "string",
          "name": "symbol",
          "type": "string"
        }
      ],
      "stateMutability": "nonpayable",
      "type": "constructor"
    },
    {
      "anonymous": false,
      "inputs": [
        {
          "indexed": true,
          "internalType": "address",
          "name": "owner",
          "type": "address"
        },
        {
          "indexed": true,
          "internalType": "address",
          "name": "approved",
          "type": "address"
        },
        {
          "indexed": true,
          "internalType": "uint256",
          "name": "tokenId",
          "type": "uint256"
        }
      ],
      "name": "Approval",
      "type": "event"
    },
    {
      "anonymous": false,
      "inputs": [
        {
          "indexed": true,
          "internalType": "address",
          "name": "owner",
          "type": "address"
        },
        {
          "indexed": true,
          "internalType": "address",
          "name": "operator",
          "type": "address"
        },
        {
          "indexed": false,
          "internalType": "bool",
          "name": "approved",
          "type": "bool"
        }
      ],
      "name": "ApprovalForAll",
      "type": "event"
    },
    {
      "anonymous": false,
      "inputs": [
        {
          "indexed": true,
          "internalType": "address",
          "name": "from",
          "type": "address"
        },
        {
          "indexed": true,
          "internalType": "address",
          "name": "to",
          "type": "address"
        },
        {
          "indexed": true,
          "internalType": "uint256",
          "name": "tokenId",
          "type": "uint256"
        }
      ],
      "name": "Transfer",
      "type": "event"
    },
    {
      "inputs": [
        {
          "internalType": "address",
          "name": "to",
          "type": "address"
        },
        {
          "internalType": "uint256",
          "name": "tokenId",
          "type": "uint256"
        }
      ],
      "name": "approve",
      "outputs": [],
      "stateMutability": "nonpayable",
      "type": "function"
    },
    {
      "inputs": [
        {
          "internalType": "address",
          "name": "owner",
          "type": "address"
        }
      ],
      "name": "balanceOf",
      "outputs": [
        {
          "internalType": "uint256",
          "name": "",
          "type": "uint256"
        }
      ],
      "stateMutability": "view",
      "type": "function"
    },
    {
      "inputs": [
        {
          "internalType": "uint256",
          "name": "tokenId",
          "type": "uint256"
        }
      ],
      "name": "getApproved",
      "outputs": [
        {
          "internalType": "address",
          "name": "",
          "type": "address"
        }
      ],
      "stateMutability": "view",
      "type": "function"
    },
    {
      "inputs": [
        {
          "internalType": "address",
          "name": "owner",
          "type": "address"
        },
        {
          "internalType": "address",
          "name": "operator",
          "type": "address"
        }
      ],
      "name": "isApprovedForAll",
      "outputs": [
        {
          "internalType": "bool",
          "name": "",
          "type": "bool"
        }
      ],
      "stateMutability": "view",
      "type": "function"
    },
    {
      "inputs": [
        {
          "internalType": "address",
          "name": "to",
          "type": "address"
        },
        {
          "internalType": "uint256",
          "name": "tokenId",
          "type": "uint256"
        }
      ],
      "name": "mint",
      "outputs": [],
      "stateMutability": "nonpayable",
      "type": "function"
    },
    {
      "inputs": [],
      "name": "name",
      "outputs": [
        {
          "internalType": "string",
          "name": "",
          "type": "string"
        }
      ],
      "stateMutability": "view",
      "type": "function"
    },
    {
      "inputs": [
        {
          "internalType": "uint256",
          "name": "tokenId",
          "type": "uint256"
        }
      ],
      "name": "ownerOf",
      "outputs": [
        {
          "internalType": "address",
          "name": "",
          "type": "address"
        }
      ],
      "stateMutability": "view",
      "type": "function"
    },
    {
      "inputs": [
        {
          "internalType": "address",
          "name": "from",
          "type": "address"
        },
        {
          "internalType": "address",
          "name": "to",
          "type": "address"
        },
        {
          "internalType": "uint256",
          "name": "tokenId",
          "type": "uint256"
        }
      ],
      "name": "safeTransferFrom",
      "outputs": [],
      "stateMutability": "nonpayable",
      "type": "function"
    },
    {
      "inputs": [
        {
          "internalType": "address",
          "name": "from",
          "type": "address"
        },
        {
          "internalType": "address",
          "name": "to",
          "type": "address"
        },
        {
          "internalType": "uint256",
          "name": "tokenId",
          "type": "uint256"
        },
        {
          "internalType": "bytes",
          "name": "data",
          "type": "bytes"
        }
      ],
      "name": "safeTransferFrom",
      "outputs": [],
      "stateMutability": "nonpayable",
      "type": "function"
    },
    {
      "inputs": [
        {
          "internalType": "address",
          "name": "operator",
          "type": "address"
        },
        {
          "internalType": "bool",
          "name": "approved",
          "type": "bool"
        }
      ],
      "name": "setApprovalForAll",
      "outputs": [],
      "stateMutability": "nonpayable",
      "type": "function"
    },
    {
      "inputs": [
        {
          "internalType": "bytes4",
          "name": "interfaceId",
          "type": "bytes4"
        }
      ],
      "name": "supportsInterface",
      "outputs": [
        {
          "internalType": "bool",
          "name": "",
          "type": "bool"
        }
      ],
      "stateMutability": "view",
      "type": "function"
    },
    {
      "inputs": [],
      "name": "symbol",
      "outputs": [
        {
          "internalType": "string",
          "name": "",
          "type": "string"
        }
      ],
      "stateMutability": "view",
      "type": "function"
    },
    {
      "inputs": [
        {
          "internalType": "uint256",
          "name": "index",
          "type": "uint256"
        }
      ],
      "name": "tokenByIndex",
      "outputs": [
        {
          "internalType": "uint256",
          "name": "",
          "type": "uint256"
        }
      ],
      "stateMutability": "view",
      "type": "function"
    },
    {
      "inputs": [
        {
          "internalType": "address",
          "name": "owner",
          "type": "address"
        },
        {
          "internalType": "uint256",
          "name": "index",
          "type": "uint256"
        }
      ],
      "name": "tokenOfOwnerByIndex",
      "outputs": [
        {
          "internalType": "uint256",
          "name": "",
          "type": "uint256"
        }
      ],
      "stateMutability": "view",
      "type": "function"
    },
    {
      "inputs": [
        {
          "internalType": "uint256",
          "name": "tokenId",
          "type": "uint256"
        }
      ],
      "name": "tokenURI",
      "outputs": [
        {
          "internalType": "string",
          "name": "",
          "type": "string"
        }
      ],
      "stateMutability": "view",
      "type": "function"
    },
    {
      "inputs": [],
      "name": "totalSupply",
      "outputs": [
        {
          "internalType": "uint256",
          "name": "",
          "type": "uint256"
        }
      ],
      "stateMutability": "view",
      "type": "function"
    },
    {
      "inputs": [
        {
          "internalType": "address",
          "name": "from",
          "type": "address"
        },
        {
          "internalType": "address",
          "name": "to",
          "type": "address"
        },
        {
          "internalType": "uint256",
          "name": "tokenId",
          "type": "uint256"
        }
      ],
      "name": "transferFrom",
      "outputs": [],
      "stateMutability": "nonpayable",
      "type": "function"
    }
  ],
  "bytecode": "0x60806040523462000319576200168e803803806200001d816200031e565b928339810190604081830312620003195780516001600160401b03908181116200031957836200004f91840162000344565b916020938482015183811162000319576200006b920162000344565b825190828211620003035760008054926001958685811c95168015620002f8575b88861014620002e4578190601f9586811162000291575b5088908683116001146200022d57849262000221575b5050600019600383901b1c191690861b1781555b81519384116200020d5784548581811c9116801562000202575b87821014620001ee57838111620001a6575b50859284116001146200014157839495509262000135575b5050600019600383901b1c191690821b1790555b6040516112d79081620003b78239f35b01519050388062000111565b9190601f1984169585845280842093905b8782106200018e5750508385961062000174575b505050811b01905562000125565b015160001960f88460031b161c1916905538808062000166565b80878596829496860151815501950193019062000152565b8582528682208480870160051c820192898810620001e4575b0160051c019086905b828110620001d8575050620000f9565b838155018690620001c8565b92508192620001bf565b634e487b7160e01b82526022600452602482fd5b90607f1690620000e7565b634e487b7160e01b81526041600452602490fd5b015190503880620000b9565b8480528985208994509190601f198416865b8c8282106200027a575050841162000260575b505050811b018155620000cd565b015160001960f88460031b161c1916905538808062000252565b8385015186558c979095019493840193016200023f565b9091508380528884208680850160051c8201928b8610620002da575b918a91869594930160051c01915b828110620002cb575050620000a3565b8681558594508a9101620002bb565b92508192620002ad565b634e487b7160e01b83526022600452602483fd5b94607f16946200008c565b634e487b7160e01b600052604160045260246000fd5b600080fd5b6040519190601f01601f191682016001600160401b038111838210176200030357604052565b919080601f84011215620003195782516001600160401b03811162000303576020906200037a601f8201601f191683016200031e565b92818452828287010111620003195760005b818110620003a257508260009394955001015290565b85810183015184820184015282016200038c56fe608060408181526004918236101561001657600080fd5b600092833560e01c91826301ffc9a7146109ce5750816306fdde0314610921578163081812fc14610901578163095ea7b31461079357816318160ddd1461077457816323b872dd1461074f5781632f745c59146106a357816340c10f191461052e57816342842e0e146104fa5781634f6ccce7146104665781636352211e1461043557816370a082311461040857816395d89b4114610310578163a22cb46514610244578163b88d4fde14610189578163c87b56dd14610130575063e985e9c5146100e057600080fd5b3461012c578060031936011261012c5760ff816020936100fe610a93565b610106610aae565b6001600160a01b0391821683526005875283832091168252855220549151911615158152f35b5080fd5b83833461012c57602036600319011261012c576101586101536101859435611041565b610bdf565b81815161016481610af9565b5280519161017183610af9565b825251918291602083526020830190610a53565b0390f35b91905034610240576080366003190112610240576101a5610a93565b906101ae610aae565b6064359360443591906001600160401b03861161023c573660238701121561023c57850135936101e96101e086610b4d565b94519485610b2a565b848452863660248789010111610239576020866102319760246102369a01838901378601015261022161021c8433610d4c565b610c73565b61022c838383610e14565b61117a565b610d28565b80f35b80fd5b8680fd5b8280fd5b9190503461024057806003193601126102405761025f610a93565b906024359182151580930361030c576001600160a01b0316923384146102ce5750338452600560205280842083855260205280842060ff1981541660ff8416179055519081527f17307eab39ab6107e8899845ad3d59bd9653f200f220920489ca2b5937696c3160203392a380f35b6020606492519162461bcd60e51b8352820152601960248201527822a9219b99189d1030b8383937bb32903a379031b0b63632b960391b6044820152fd5b8480fd5b8284346102395780600319360112610239578151918160019283549384811c918186169586156103fe575b60209687851081146103eb578899509688969785829a5291826000146103c4575050600114610387575b5050506101859291610378910385610b2a565b51928284938452830190610a53565b91908693508083528383205b8284106103ac5750505082010181610378610185610365565b8054848a018601528895508794909301928101610393565b60ff19168782015293151560051b8601909301935084925061037891506101859050610365565b634e487b7160e01b835260228a52602483fd5b92607f169261033b565b50503461012c57602036600319011261012c5760209061042e610429610a93565b610b68565b9051908152f35b828434610239576020366003190112610239575061045560209235610c26565b90516001600160a01b039091168152f35b9050823461023957602036600319011261023957508035906008548210156104a25760208361049484611205565b91905490519160031b1c8152f35b608490602084519162461bcd60e51b8352820152602c60248201527f455243373231456e756d657261626c653a20676c6f62616c20696e646578206f60448201526b7574206f6620626f756e647360a01b6064820152fd5b50503461012c576102316102369161051136610ac4565b9192519261051e84610af9565b86845261022161021c8433610d4c565b83833461012c578060031936011261012c57610548610a93565b6024359082519261055884610af9565b8484526001600160a01b0382169081156106615761057e61057885611041565b15611236565b600854848752602090600982528083892055600160401b81101561064e579261023696949260028795936105db876105c08760016102319d9901600855611205565b90919082549060031b600019811b9283911b16911916179055565b6105e486610b68565b848c5260068252838c20818d52825285848d2055858c5260078252838c205561060f61057886611041565b838b5260038152828b2080546001019055848b5252882080546001600160a01b03191682179055876000805160206112828339815191528180a461105e565b634e487b7160e01b885260418952602488fd5b5162461bcd60e51b8152602081880181905260248201527f4552433732313a206d696e7420746f20746865207a65726f20616464726573736044820152606490fd5b8284346102395781600319360112610239576106bd610a93565b602435906106ca81610b68565b8210156106f8576001600160a01b031682526006602090815283832091835290815290829020548251908152f35b835162461bcd60e51b8152602081870152602b60248201527f455243373231456e756d657261626c653a206f776e657220696e646578206f7560448201526a74206f6620626f756e647360a81b6064820152608490fd5b83346102395761023661076136610ac4565b9161076f61021c8433610d4c565b610e14565b50503461012c578160031936011261012c576020906008549051908152f35b9050346102405781600319360112610240576107ad610a93565b6024359290916001600160a01b03919082806107c887610c26565b169416938085146108b457803314908115610895575b501561082d57848652602052842080546001600160a01b0319168317905561080583610c26565b167f8c5be1e5ebec7d5bd14f71427d1e84f3dd0314c0f7b2291e5b200ac8c7c3b9258480a480f35b6020608492519162461bcd60e51b8352820152603d60248201527f4552433732313a20617070726f76652063616c6c6572206973206e6f7420746f60448201527f6b656e206f776e6572206f7220617070726f76656420666f7220616c6c0000006064820152fd5b90508652600560205281862033875260205260ff8287205416386107de565b506020608492519162461bcd60e51b8352820152602160248201527f4552433732313a20617070726f76616c20746f2063757272656e74206f776e656044820152603960f91b6064820152fd5b828434610239576020366003190112610239575061045560209235610c4c565b82843461023957806003193601126102395781519181825492600184811c918186169586156109c4575b60209687851081146103eb578899509688969785829a5291826000146103c4575050600114610987575050506101859291610378910385610b2a565b91908693508280528383205b8284106109ac5750505082010181610378610185610365565b8054848a018601528895508794909301928101610993565b92607f169261094b565b849134610240576020366003190112610240573563ffffffff60e01b8116809103610240576020925063780e9d6360e01b8114908115610a10575b5015158152f35b6380ac58cd60e01b811491508115610a42575b8115610a31575b5083610a09565b6301ffc9a760e01b14905083610a2a565b635b5e139f60e01b81149150610a23565b919082519283825260005b848110610a7f575050826000602080949584010152601f8019910116010190565b602081830181015184830182015201610a5e565b600435906001600160a01b0382168203610aa957565b600080fd5b602435906001600160a01b0382168203610aa957565b6060906003190112610aa9576001600160a01b03906004358281168103610aa957916024359081168103610aa9579060443590565b602081019081106001600160401b03821117610b1457604052565b634e487b7160e01b600052604160045260246000fd5b601f909101601f19168101906001600160401b03821190821017610b1457604052565b6001600160401b038111610b1457601f01601f191660200190565b6001600160a01b03168015610b8857600052600360205260406000205490565b60405162461bcd60e51b815260206004820152602960248201527f4552433732313a2061646472657373207a65726f206973206e6f7420612076616044820152683634b21037bbb732b960b91b6064820152608490fd5b15610be657565b60405162461bcd60e51b8152602060048201526018602482015277115490cdcc8c4e881a5b9d985b1a59081d1bdad95b88125160421b6044820152606490fd5b6000908152600260205260409020546001600160a01b0316610c49811515610bdf565b90565b610c5861015382611041565b6000908152600460205260409020546001600160a01b031690565b15610c7a57565b60405162461bcd60e51b815260206004820152602d60248201527f4552433732313a2063616c6c6572206973206e6f7420746f6b656e206f776e6560448201526c1c881bdc88185c1c1c9bdd9959609a1b6064820152608490fd5b60809060208152603260208201527f4552433732313a207472616e7366657220746f206e6f6e20455243373231526560408201527131b2b4bb32b91034b6b83632b6b2b73a32b960711b60608201520190565b15610d2f57565b60405162461bcd60e51b815280610d4860048201610cd5565b0390fd5b906001600160a01b038080610d6084610c26565b16931691838314938415610d93575b508315610d7d575b50505090565b610d8991929350610c4c565b1614388080610d77565b909350600052600560205260406000208260005260205260ff604060002054169238610d6f565b15610dc157565b60405162461bcd60e51b815260206004820152602560248201527f4552433732313a207472616e736665722066726f6d20696e636f72726563742060448201526437bbb732b960d91b6064820152608490fd5b610e3891610e2184610c26565b6001600160a01b0393848416939185168414610dba565b838216938415610ff057839182610f37575060085460008781526009602052604090208190559150600160401b821015610b1457610e9e92610e85876105c0856001899701600855611205565b828603610f04575b50610e9786610c26565b1614610dba565b600080516020611282833981519152600084815260046020526040812060018060a01b03199081815416905583825260036020526040822060001981540190558482526040822060018154019055858252600260205284604083209182541617905580a4565b610f0d90610b68565b60406000878152600660205281812083825260205288828220558881526007602052205538610e8d565b858303610f49575b50610e9e92610e85565b610f54919250610b68565b600019810191908211610fda57610e9e9284926000908882526020906007825260409182842054828103610fa3575b508a84528383812055868452600681528284209184525281205592610f3f565b8785526006825283852083865282528385205488865260068352848620828752835280858720558552600782528385205538610f83565b634e487b7160e01b600052601160045260246000fd5b60405162461bcd60e51b8152602060048201526024808201527f4552433732313a207472616e7366657220746f20746865207a65726f206164646044820152637265737360e01b6064820152608490fd5b6000908152600260205260409020546001600160a01b0316151590565b9192600092909190803b15611170576110ac946040518092630a85bd0160e11b9485835233600484015287602484015260448301526080606483015281878160209a8b966084830190610a53565b03926001600160a01b03165af1849181611130575b5061111f575050503d600014611117573d6110db81610b4d565b906110e96040519283610b2a565b81528091833d92013e5b805191826111145760405162461bcd60e51b815280610d4860048201610cd5565b01fd5b5060606110f3565b6001600160e01b0319161492509050565b9091508581813d8311611169575b6111488183610b2a565b8101031261030c57516001600160e01b03198116810361030c5790386110c1565b503d61113e565b5050915050600190565b9293600093909291803b156111fa579484916111d49660405180948193630a85bd0160e11b9788845233600485015260018060a01b0380921660248501526044840152608060648401528260209b8c976084830190610a53565b0393165af1849181611130575061111f575050503d600014611117573d6110db81610b4d565b505050915050600190565b60085481101561122057600860005260206000200190600090565b634e487b7160e01b600052603260045260246000fd5b1561123d57565b60405162461bcd60e51b815260206004820152601c60248201527b115490cdcc8c4e881d1bdad95b88185b1c9958591e481b5a5b9d195960221b6044820152606490fdfeddf252ad1be2c89b69c2b068fc378daa952ba7f163c4a11628f55a4df523b3efa264697066735822122066a144f23418dbcbb30ebeeb929b91117172b5d28d9d3ba6f3ed1c10bac2239064736f6c63430008110033",
  "linkReferences": {},
  "deployedLinkReferences": {}
}